:020000040000FA
:0410000042EF09F0C2
:08100800056ED8CF06F0E0CF21
:1010100007F00001E9CF0DF0EACF08F0E1CF09F0C9
:10102000E2CF0AF0D9CF0BF0DACF0CF0F3CF14F007
:10103000F4CF15F0FACF16F000C00FF001C010F099
:1010400002C011F003C012F004C013F09DAA2CEFEF
:1010500008F09EBA4FEF08F00FC000F010C001F08A
:1010600011C002F012C003F013C004F00DC0E9FF7C
:1010700008C0EAFF088E09C0E1FF0AC0E2FF0BC00A
:10108000D9FF0CC0DAFF14C0F3FF15C0F4FF16C07F
:10109000FAFF055007C0E0FF06C0D8FF1000036A42
:1010A00056501A0FE96E000E0320EA6EAECFEFFF26
:1010B00056C057F0036A5650380F016E000E0322D7
:1010C00003C088F0036A56501A0FE96E000E032021
:1010D000EA6EEFCF89F088C0EAFF01C0E9FF89C05E
:1010E000EFFF1A504C0806E018BC04D0188C188E7C
:1010F0001982566A1A50410803E11884189019821F
:10110000562A1A504F0A09E01D0A0CE01E0A1BE07D
:10111000080A22E0140A28E02DD018821894576A91
:10112000189E28D0565003080DE21BC039F01CC091
:101130003AF01DC03BF0566A200E1A6E939E8A7ECE
:101140001892199217D01894566A18861892198214
:10115000939E8A8E18900ED01894566A189219820F
:10116000939E8A9E189006D018801894566A1892FA
:10117000198200D09E9A2CEF08F0006A016A026A78
:10118000036A826B836B846B856B815180117F1145
:101190007E112CE0200E866FD8907A377B377C3713
:1011A0007D3782378337843785378151855D08E104
:1011B0008051845D05E17F51835D02E17E51825D56
:1011C0000FE37E51825F7F51D8A07F3D835F8051C6
:1011D000D8A0803D845F8151D8A0813D855FD880B3
:1011E0000036013602360336862FD6D7EA6A820EDB
:1011F000E96E1DEF09F0F2CF7AF0F29EFD0EA96EB6
:10120000A69CA69EA680A8507ABFF28E000AF3E1A3
:10121000BF0E946E240EAC6E900EAB6E080EB86EC0
:101220007D6BB70E7C6F1B0E7B6F7A6B816B806B57
:1012300077C07FF076C07EF0A0D7010E005C786F9B
:10124000000E0158796F7951B06E78C0AFFF84EF0E
:1012500009F0EA6A770EE96EEF500EE00F0E016EAC
:10126000006A002EFED7012EFBD78F0E006E002ED7
:10127000FED70000EF2EF2D7000CACA2FED777C04D
:10128000ADFF000CF86AD09E088EEA6AE96AC15088
:10129000C00B0F09C16E070EB46E18901892189407
:1012A00018961898189A189C189E19901982566AC0
:1012B000576A586A596A5A6A200E5B6E5C6E5D6E98
:1012C0005E6E5F6E606F616F626F636F646F656F9C
:1012D000666F676F686F696F6A6F6B6F410E6C6FD7
:1012E000540E6D6F2B0E6E6F420E6F6F410E706F4E
:1012F000550E716F440E726F350E736F746B756B94
:101300004B0E776F766B77D7C00EF2129D8A586AB4
:10131000585019080BE3036A58501A0FE96E000E73
:101320000320EA6E200EEF6E582AF2D7586A585002
:1013300019080BE3036A5850380FE96E000E0320BA
:10134000EA6E200EEF6E582AF2D7020EB06E700EC3
:10135000AF6E18A00CD0939E8A7E020E766F960E0A
:10136000776F77DF762FFBD7566A576AF2D718A2C6
:101370002DD0939E8A7EC80E776F6BDF18BE1BD070
:101380005950030818E1020E596EFB0EA96E020EA9
:10139000A86EA69CA69EA684F2CF00F0F29E0F0136
:1013A000550EA76EAA0EA76EA682A6B2FED7A69469
:1013B0000050F21200014F0E776F5FDF4B0E776F18
:1013C0005CDF200E776F59DF566AD1D718AE2DD06B
:1013D00018B22BD018B629D0040EB06EE10EAF6E45
:1013E0006CC077F04ADF6DC077F047DF6EC077F0F2
:1013F00044DF6FC077F041DF70C077F03EDF71C02F
:1014000077F03BDF72C077F038DF73C077F035DFFD
:10141000040E766FFA0E776F1CDF762FFBD7939E44
:101420008A7E020EB06E700EAF6E18A482D0189431
:10143000939E8A7E57500C082FE16DC039F04E0EF6
:101440003B6E4D0E3D6E6CC040F071C042F06FC0FF
:1014500044F0586A5850575C0EE3036A5850380FEE
:10146000E96E000E0320EA6EEFCF76F076C077F0DB
:1014700004DF582AEFD7010E5724586E5850180829
:1014800005E3200E776FF9DE582AF8D7752B7551D2
:10149000040802E2756B188EFA0EA96E57C0A8FFF9
:1014A000A69CA69EA684F2CF00F0F29E0F01550ED8
:1014B000A76EAA0EA76EA682A6B2FED7A69400506B
:1014C000F21218A62ED0586A5850190810E3036A71
:1014D0005850380FE96E000E0320EA6EEFCF76F019
:1014E00076C077F00001C9DE582A0F01EDD7586A9F
:1014F0005850190814E3036A58501A0FE96E000E89
:101500000320EA6E200EEF6E036A5850380FE96E22
:10151000000E0320EA6E200EEF6E582AE9D7566AB5
:10152000576A040E0001766FFA0E776F92DE762FFF
:10153000FBD718B251D019A24FD0F2CF76F0F29E5D
:10154000FB0EA96EA69CA69EA680A85076BFF28E22
:10155000596E593C1AD05A2A5A50030816E2FB0E0B
:10156000A96E030EA86EA69CA69EA684F250006EDD
:10157000F29E0F01550EA76EAA0EA76EA682A6B206
:10158000FED7A6940050F212000118B61DD0595093
:1015900003081AE118BE18D0939E8A7E57500C0893
:1015A00002E2573C11D018840C0E576E6CC038F014
:1015B0006EC03AF06CC03CF0450E3E6E530E3F6E6E
:1015C0004E0E416E530E436E040E766FFA0E776F19
:1015D00040DE762FFBD7566A770E006E002EFED7C0
:1015E00000D0742B3950745D03E393948A9402D035
:1015F00093948A843A50745D03E393908A9002D066
:1016000093908A803B50745D03E393928A9202D058
:0816100093928A829ED603002A
:020000040030CA
:0E000000240E3E1E008381000FC00FE00F4053
:00000001FF
;PIC18F4550
;CRC=7253  CREATED="15-fev-14 08:36"
