:020000040000FA
:040000000000000CF0
:0410000015EF11F0E7
:08100800056ED8CF06F0E0CF21
:1010100007F00001E9CF0DF0EACF08F0E1CF09F0C9
:10102000E2CF0AF0D9CF0BF0DACF0CF0F3CF14F007
:10103000F4CF15F0FACF16F000C00FF001C010F099
:1010400002C011F003C012F004C013F0F2A82CEF9C
:1010500008F0F2B2AAEF0FF0A0AA32EF08F0A1BA9E
:10106000F8EF0EF00FC000F010C001F011C002F058
:1010700012C003F013C004F00DC0E9FF08C0EAFF7E
:1010800009C0E1FF0AC0E2FF0BC0D9FF0CC0DAFFC4
:1010900014C0F3FF15C0F4FF16C0FAFF055007C0D7
:1010A000E0FF06C0D8FF1000F76AB80FF66E100E0A
:1010B000F7220900F55012000403010000000000AF
:1010C0000000000000000000F76AD80FF66E100E56
:1010D000F7220900F5501200040001000000000092
:1010E0000000000000000000F76AF80FF66E100E16
:1010F000F7220900F55012004000080040000000EF
:1011000000000000000000000000000000000000DF
:1011100000000000000000000DAE03D0F2CF0EF082
:10112000F29EF76A3A0FF66E110EF7220900F5509B
:101130000DAE02D00EBEF28E120040000000400044
:10114000000000000000000000000000000000009F
:1011500000000000000000000000F76A6A0FF66E51
:10116000110EF7220900F550120009024300020196
:1011700000C0320904000001020201000524001031
:1011800001042402020524060001052401000107D0
:101190000581030800FA09040100020A00000007A3
:1011A0000502024000FA070582024000FA00F76AD1
:1011B000BE0FF66E110EF7220900F5501200020064
:1011C000F76AD00FF66E110EF7220900F5501200E3
:1011D0001201100102000040D8040A0000010102BF
:1011E0000001F76AF20FF66E110EF7220900F550B2
:1011F000120004030904080370006900630020035F
:10120000730061006E00640072006F0020006A00CD
:101210007500630061002000750073006200F76ACA
:101220002E0FF66E120EF7220900F5501200636FB2
:101230006D616E646F3A2025780D0A00F2CF0EF0D2
:10124000F29EF76A560FF66E120EF7220900F5505D
:101250000EBEF28E12000D0A5465737461206C6527
:1012600064210D0A00006D926994689403EF0FF0F9
:101270006A6A68920CEF0FF02C6A2B6A250E2A6EB0
:10128000800E296E2D6A2E6A080E2F6E7F6B7A9360
:10129000316A306A7B6B7C917A81000C9F6B9F5125
:1012A00001080AE3036A9F51270FE96E000E03202D
:1012B000EA6EEF6A9F2BF3D7DFDF1A6A010E1B6E0F
:1012C000196A000C010EA86FA8510F080EE3700EEA
:1012D000A825016E0F0E036ED8B0032A01C0E9FFE6
:1012E00003C0EAFFEF6AA82BEFD71E6A1D6A000C45
:1012F000400E0401016F050E036F026B880E006F34
:10130000046B050E076F400E066F0001000C6A6A41
:10131000686A9F0E6B6E390E696E6E6ABFDFD2DF30
:10132000160E706E68A602D06896FCD76D98E0DF46
:10133000030E1F6E12EF0FF0698468986D8218EF2C
:101340000FF0689C1EEF0FF070A002D0D1DF7090FC
:10135000689A24EF0FF0A3C020F0000CFF0E206E5F
:10136000000CA16B265235E0A1513F0832E31C501E
:1013700005E0020A0DE0010A15E01ED0036A2550BF
:10138000F2CFA3F0F29EE9DEA3BFF28EA26F14D0DB
:10139000036A2550F2CFA3F0F29E23DFA3BFF28EA3
:1013A000A26F0AD0036A2550F2CFA3F0F29E08DFA5
:1013B000A3BFF28EA26F00D0252A2606A151A12B31
:1013C000036A400FE96E050E0320EA6EA2C0EFFF2C
:1013D000C9D7265204E1A151400801E0196AA1C011
:1013E000A3F0B9DF000C256A1C6A05010351010A4C
:1013F000000105E0030A08E0010A09E01FD0120E0F
:10140000266E030E1C6E1CD0430E266E19D0020EE3
:101410001C6E036A05010251210FE96E000E0320C4
:10142000EA6EEFCF25F0036A2550F2CFA0F0F29ECE
:101430000001D7DEA0BFF28E266E02D08FDF0CD067
:101440000501075305E12650065D02E206C526F0B8
:10145000010E196E000185DF46EF0BF0A05304E189
:10146000040E1F6E2FDFC1D0050E1F6EA36F800EFE
:10147000A26F010EA16FA1510F08D8A0B6D0A46B26
:10148000036AA151F2CFA8F0F29E1EDEA8BFF28E31
:10149000000A51E0040EA46FD890A135036AF2CF80
:1014A000A8F0F29E39DE0900F5CF03F0A8BFF28E56
:1014B000A56F03C0A6F0A151080DF350010F016EF6
:1014C000040E036ED8B0032A01C0E9FF03C0EAFF8F
:1014D000A5C0EFFFA151080DF350020F016E040EDD
:1014E000036ED8B0032A01C0E9FF03C0EAFFA3C01E
:1014F000ECFFED52A2C0EFFFD890A135036AF2CF06
:10150000A8F0F29E09DE0900F5CF03F0A8BFF28E25
:10151000A2270350A323880EA76FA6B1A781A6B365
:10152000A783A151080DF3CF01F0040E01C0E9FF1C
:10153000EA6EA7C0EFFF036AA151F2CFA8F0F29EB6
:10154000B3DDA8BFF28E000A31E0A483A151080DDB
:10155000F350060F016E040E036ED8B0032A01C0CB
:10156000E9FF03C0EAFFA3C0ECFFED52A2C0EFFF0A
:10157000D890A135036AF2CFA8F0F29EB5DD09003C
:10158000F5CF03F0A8BFF28EA2270350A323A151E9
:10159000080DF350040F016E040E036ED8B0032A39
:1015A00001C0E9FF03C0EAFF400EEF6EA451060838
:1015B00002E10E0EA46F036AA151F2CFA8F0F29ED1
:1015C00073DDA8BFF28E020801E0A489700EA12588
:1015D000016E0F0E036ED8B0032A01C0E9FF03C0ED
:1015E000EAFFA4C0EFFFA12B46D740EF0BF00501A7
:1015F000015100010DE0010A14E0020A1EE0060A92
:1016000027E0030A2CE00E0A2BE0010A2FE03CD071
:101610001BC040F50501416B020E0001A36F9BDE6C
:1016200035D00501022D06D0010E1B160001A36B5B
:1016300092DE02D0000192DE29D00501022D05D0F4
:101640001B820001A36B87DE02D0000187DE1ED063
:10165000020E196E02C524F0A36B7DDE17D0C3D62F
:101660001AC040F5010EA36F76DE10D005010251BD
:10167000010808E302C51AF002C5A0F00001EED689
:10168000A36B69DE000102D069DE00D0BEEF0CF072
:101690001AC0A0F005010151000105E00A0A0BE0A3
:1016A000010A2BE03CD00501406B416B020E0001AA
:1016B000A36F51DE36D0A0531EE0010EA05D036A79
:1016C000F2CFA2F0F29E73DDA2BFF28E016E050191
:1016D000045DD8A002D000010ED0036A0451270F88
:1016E000E96E000E0320EA6EEFCF40F5010E000117
:1016F000A36F31DE01D032DE14D0A0530EE0036AB6
:1017000005010451270FE96E000E0320EA6E02C5A1
:10171000EFFF0001A36B1FDE01D020DE02D01EDE32
:1017200000D0BEEF0CF0A191A0BFA181A09FA1A10C
:1017300010D0036AA051F2CFA2F0F29EB5DCA2BF96
:10174000F28E000A02E1000E01D0010E016E10D0EF
:101750000FD0036AA051F2CFA2F0F29EB5DCA2BF77
:10176000F28E000A02E1000E01D0010E016E00D0DF
:101770002AEF0CF0A191A0BFA181A09FA1A110D040
:10178000A051080DF350040F016E040E036ED8B083
:10179000032A01C0E9FF03C0EAFF880EEF6E09D0FB
:1017A000A051080DF3CF01F0040E01C0E9FFEA6E6D
:1017B000EF6A39EF0CF0A191A0BFA181A09FA1A178
:1017C00010D0A051080DF350040F016E040E036EEB
:1017D000D8B0032A01C0E9FF03C0EAFF840EEF6E10
:1017E0000AD0A051080DF3CF01F0040E01C0E9FFAB
:1017F000EA6E840EEF6E3FEF0CF0A191A0BFA181C5
:10180000A09FA1A110D0A051080DF350040F016EAC
:10181000040E036ED8B0032A01C0E9FF03C0EAFF3B
:10182000EFCFA2F00AD0A051080DF3CF01F0040EC3
:1018300001C0E9FFEA6EEFCFA2F0A2AF02D0A2B5DD
:1018400002D0000E01D0010E016E49EF0CF004C56C
:10185000A0F069D7015229E005010151010A0001F8
:1018600005E0020A09E0030A0DE01DD004C5A0F05E
:1018700081D7A36B70DD19D004C5A0F09CD7A36BF2
:101880006ADD13D00501406B416B04C5A0F0000177
:10189000B4D7015204E0010E0501406F0001020EB1
:1018A000A36F59DD02D05ADD00D0BEEF0CF0FE0E62
:1018B000206E000C0501042D01D002D0045348E134
:1018C000015100010BE0010A0DE0210A1CE0010AB0
:1018D0001FE0030A2EE0010A31E037D0010E806FCD
:1018E000E6DF35D0050EEA6E400EE96EE26A320E92
:1018F000E16E080E016EE6CFEEFF012EFCD706C5A5
:10190000A3F029DD24D0020E806F7A83D0DF1FD0B0
:10191000050EEA6E400EE96EE26A290EE16E070ED0
:10192000016EE6CFEEFF012EFCD7070EA36F13DD8D
:101930000ED002C57FF0A36B0EDD09D002C531F0D9
:1019400003C530F0A36B07DD02D008DD00D0050130
:101950000001BEEF0CF0196A050100517F0B000178
:1019600007E0010A06E0030A05E0230A04E004D0C8
:101970003ED68ED66CD79ED7F1DC00D0A3EF0EF00A
:10198000A051080DF3CF01F0040E01C0E9FFEA6E8B
:10199000EFCFA2F0A151020806E1A2AD02D0A16BE7
:1019A00002D0010EA16FA151030812E1840EA26FB3
:1019B000A051080DF350040F016E040E036ED8B051
:1019C000032A01C0E9FF03C0EAFF840EEF6E09D0CD
:1019D000A12D03D0C80EA26F04D0A15302E1880E3E
:1019E000A26F036A010E026EA051006E05E0D8904E
:1019F00002360336002EFBD70250FF0A006EFF0EA0
:101A0000031A00501D1603501E16D890A035036A05
:101A1000F2CFA5F0F29E8CEC08F00900F5CF03F0B0
:101A2000A5BFF28EA36F03C0A4F0A051080DF35020
:101A3000010F016E040E036ED8B0032A01C0E9FF46
:101A400003C0EAFFA3C0EFFFA4B1A281A4B3A283A5
:101A5000A051080DF3CF01F0040E01C0E9FFEA6EBA
:101A6000A2C0EFFF000CB251080DF350040F016E3D
:101A7000040E036ED8B0032A01C0E9FF03C0EAFFD9
:101A8000EFCFB6F0B6BF5BD0B251080DF350050FE3
:101A9000016E040E036ED8B0032A01C0E9FF03C033
:101AA000EAFFB3C0EFFFB551020816E1B251080DCD
:101AB000F350040F016E040E036ED8B0032A01C068
:101AC000E9FF03C0EAFFEFCFB6F0B6AD02D0B56BC9
:101AD00002D0010EB56F13D0B551040810E1B25118
:101AE000080DF3CF01F0040E01C0E9FFEA6EEFCF5D
:101AF000B6F0B6AD03D0010EB56F01D0B56BB52D04
:101B000003D0C80EB66F04D0B55302E1880EB66F8D
:101B1000B4B1B681B4B3B683B251080DF350040F1B
:101B2000016E040E036ED8B0032A01C0E9FF03C0A2
:101B3000EAFFB6C0EFFF010E016E03D000D0000E29
:101B4000016E000C8051010A03E0030A12E022D06A
:101B5000EA6A320EE96E050EE26EE16A080E016E67
:101B6000E6CFEEFF012EFCD7A36BABEC09F0806B48
:101B700015D0EA6A290EE96E050EE26EE16A070EDB
:101B8000016EE6CFEEFF012EFCD7806BA36BABECB2
:101B900009F004D0806B78EC09F000D0F0EF0DF084
:101BA000A151080DF350010F016E040E036ED8B061
:101BB000032A01C0E9FF03C0EAFF036AEFCF01F087
:101BC00003C002F0E9EF0DF07C817E6B020EA16F85
:101BD000E7D701C07DF0F5EF0DF0A05302E1B2D7D9
:101BE00014D0A051020802E1EFD70FD0036A010E12
:101BF000026EA051006E05E0D89002360336002E2A
:101C0000FBD702501D1203501E12000CA1C06EFF24
:101C1000A15303E0040E1F6E02D0020E1F6E16EFDA
:101C20000EF01A6A196A24C0A1F0F0D78DEF0EF0F9
:101C3000A751080DF350040F016E040E036ED8B0C7
:101C4000032A01C0E9FF03C0EAFFEFCFAFF0AFBF47
:101C50003FD0A751080DF350060F016E040E036E1E
:101C6000D8B0032A01C0E9FF03C0EAFFECCF03F0BC
:101C7000ED52EFCFB0F003C0B1F0AE6BAD6BAE5133
:101C8000AB5D1AE303E1AA51AD5D16E2A8C0E9FF1E
:101C9000A9C0EAFFEFCFB4F0B1C0EAFFB0C0E9FFDE
:101CA000B4C0EFFFB02BD8B4B12BA82BD8B4A92B5C
:101CB000AD2BD8B4AE2BE3D7A7C0B2F0ABC0B4F015
:101CC000AAC0B3F0ACC0B5F0CEDE015003D000D056
:101CD000000E016E000C7B530DE07A91020EA76F8F
:101CE000A96B3A0EA86FAB6B7BC0AAF0020EAC6F6B
:101CF0009FDF7B6B000C7B5302E0EDDF01D07A812C
:101D000092EF0EF0A0530AE1192C03D0B1EC09F0C8
:101D100004D01950020801E184D704D0A051020870
:101D200001E1E9D7000C6C309F6F9F339F331F0E8A
:101D30009F176C523BE1040100513C0B34081BE13E
:101D4000046B000108D6203C05D0A06B030EA16FE8
:101D500017DE0ED0A06B020EA16F12DE2050FE081F
:101D600007E0B26BB46B20C0B3F0040EB56F7BDE3E
:101D70006D9819D0040100513C0B040815E10001D5
:101D8000A06B2BDFA06B020EA16FFADD2050FE08C6
:101D90000AE0203C01D007D0B26BB46B20C0B3F096
:101DA000010EB56F60DE040120D000016C50040804
:101DB00012E1FF0E206EA06BA5DF203C01D008D001
:101DC000B26BB46B20C0B3F0020EB56F4CDE02D024
:101DD00078EC09F009D06CB404D09FC0A0F0FDDE0F
:101DE00003D09FC0A0F08EDF0401000129EF0FF0A7
:101DF0001F5201E12FD068522DE068A404D069A4DD
:101E000002D033EF09F06DA201D024D068A204D033
:101E100069A202D038EF09F068A004D069A002D00E
:101E200087EF09F068A804D069A802D09CEF09F0F8
:101E300068AC04D069AC02D0A1EF09F068AA04D064
:101E400069AA02D0A4EF09F068A604D069A602D05E
:101E50006AD76896A19A32EF08F0EA6AA00EE96E96
:101E6000EF500FE0010E016E006A002EFED7012E2A
:101E7000FBD74A0E006E002EFED700000000EF2EAA
:101E8000F1D7000C150EA05F0EE3EA6AA00EE96E12
:101E9000FC0EEF16D890EF32EF32EF5004E001D095
:101EA0000000EF2EFDD7000C846B9380000E81B0F4
:101EB000010E010802E1010E846F040E9F6FD40E23
:101EC000A06FE0DF9F2FFBD7000CA691F2BEA6818A
:101ED000F29E7B513F0802E23F0E7B6F7B517B2BD2
:101EE000036A3A0FE96E000E0320EA6EA5C0EFFF09
:101EF000F29EA6B1F28E7AA101D0EDDE000C7B51EC
:101F00003F0804E27AA101D0E6DEF9D7A4C0A5F02B
:101F1000DCDF000CA3BF0FD00F0E006EA23900163D
:101F20000A0E005C03E2300E002602D0A351002608
:101F300000C0A4F0E4DF0F0EA2170A0EA25D02E2B9
:101F4000300E02D0A39FA351A227A2C0A4F0D7DFD6
:101F500097EF10F0939C8A7C836B826BF90E006E76
:101F6000002EFED700000000010EA06F76DF030EEA
:101F70009F6FED0EA06F86DF9F2FFBD7010EA06F26
:101F80006CDF030E9F6FED0EA06F7CDF9F2FFBD7E2
:101F9000040E9F6FD40EA06F75DF9F2FFBD784DFD9
:101FA0008453D8A48389040E9F6FD40EA06F6ADF78
:101FB0009F2FFBD779DF8453D8A48387040E9F6FAC
:101FC000D40EA06F5FDF9F2FFBD76EDF8453D8A4A2
:101FD0008385040E9F6FD40EA06F54DF9F2FFBD715
:101FE00063DF8453D8A48383040E9F6FD40EA06F45
:101FF00049DF9F2FFBD758DF8453D8A48381040E79
:102000009F6FD40EA06F3EDF9F2FFBD74DDF845311
:10201000D8A4828B040E9F6FD40EA06F33DF9F2F46
:10202000FBD742DF8453D8A48289040E9F6FD40E5D
:10203000A06F28DF9F2FFBD737DF8453D8A4828778
:10204000040E9F6FD40EA06F1DDF9F2FFBD72CDFD8
:102050008453D8A48285040E9F6FD40EA06F12DF24
:102060009F2FFBD721DF8453D8A48283040E9F6F58
:10207000D40EA06F07DF9F2FFBD716DF8453D8A4A1
:102080008281100EA96E83C0A8FFA69CA69EA6847E
:10209000F2CF00F0F29E0F01550EA76EAA0EA76EAA
:1020A000A682A6B2FED7A6940050F212110EA96E17
:1020B00082C0A8FFA69CA69EA684F2CF00F0F29E46
:1020C000550EA76EAA0EA76EA682A6B2FED7A6943C
:1020D0000050F212F2CF9FF0F29EFD0EA96EA69C68
:1020E000A69EA680A85000019FBFF28E000AD8B419
:1020F00002D00F01EFD7F2CF9FF0F29E110EA96E22
:10210000A69CA69EA680A8509FBFF28EA06FA16B32
:10211000A1510FEC09F0A12B006EA46FF0DE090EA7
:10212000A15DF6E1A0C0A2F0570EA36FF3D60D0E8D
:10213000A46FE5DE0A0EA46FE2DE020E9F6FFA0EB8
:10214000A06F8BDE9F2FFBD7F29232EF08F0660E66
:10215000D36EF2CF89F0F29EFD0EA96EA69CA69ECC
:10216000A680A85089BFF28E000AF3E131EF11F08A
:102170006D6A696A080E6F6E94503009946E1F6A1A
:10218000186AF2BE188EF29E4EEC09F018BEF28E5E
:102190001E6A1D6AEFEF10F0186AF2BE188EF29EEA
:1021A0004EEC09F018BEF28E6D6A140E6F6E696AFD
:1021B0006D86010E1F6EE0EF10F06DB601D0ECD70A
:1021C0001F2C0BD06DBA09D0686A696AA08AC00E4C
:1021D000F212110E696E020E1F6E000CC9D7EDDFF0
:1021E0001F500208FCE134EF11F07CB101D0FDD7A3
:1021F0007E517E2B036A880FE96E050E0320EA6E7E
:10220000EFCF89F07D517E5D0CE37C91186AF2BEC0
:10221000188EF29E020EA06FA16FC0EC0CF018BEDB
:10222000F28E89C001F03DEF11F0F86AD09E0D8E5C
:10223000EA6AE96AB896190EAF6E260EAC6E900E79
:10224000AB6EC150C00B0F09C16E070EB46E1F6A92
:10225000216A040E226E0C0E236E266A7B6B806B45
:1022600076D73CEC09F0BAD7A8DF1A52FEE0C00ED0
:10227000F212F2887CA118D0B8D701C081F0815148
:102280004C0812E1939C8A7C896B89511EEC09F001
:1022900000090AE0892B186AF2BE188EF29EA46F1C
:1022A0002EDE18BEF28EF1D7010E8527D8B0862B10
:1022B000D8B4872BD8B4882B88530AE1875308E118
:1022C000865126080BE2FF0A03E185510F0806E25A
:1022D000886B876B866B856B939E8A7ECBD703005A
:020000040030CA
:0E000000240E3F1E008381000FC00FE00F4052
:00000001FF
;PIC18F2550
