:020000040000FA
:041000008BEF08F07A
:08100800056ED8CF06F0E0CF21
:1010100007F00001E9CF0DF0EACF08F0E1CF09F0C9
:10102000E2CF0AF0D9CF0BF0DACF0CF0F3CF14F007
:10103000F4CF15F0FACF16F000C00FF001C010F099
:1010400002C011F003C012F004C013F0F2A82CEF9C
:1010500008F0F2B263EF08F00FC000F010C001F02A
:1010600011C002F012C003F013C004F00DC0E9FF7C
:1010700008C0EAFF09C0E1FF0AC0E2FF0BC0D9FFC8
:101080000CC0DAFF14C0F3FF15C0F4FF16C0FAFF5E
:10109000055007C0E0FF06C0D8FF1000EA6A230E23
:1010A000E96EEF500FE0010E016E006A002EFED7D0
:1010B000012EFBD74A0E006E002EFED70000000066
:1010C000EF2EF1D7000C939C8A9CA60E006E002E8A
:1010D000FED700001CC023F0E1DF939C8A8C630ED6
:1010E000006E002EFED700000000939C8A9CF292B6
:1010F0002CEF08F0660ED36EF2CF22F0F29EFD0EBA
:10110000A96EA69CA69EA680A85022BEF28E000ABA
:10111000F3E1A1EF08F0F86AD09E0D8EEA6AE96A61
:10112000B896190EAF6E260EAC6E900EAB6EC15017
:10113000C00B0F09C16E070EB46E1B6A1C6A216AD0
:10114000D9D7F2CF22F0F29E0A0EA96EA69CA69ED7
:10115000A680A85022BEF28E1C6E1C3C16D01C6AC3
:101160000A0EA96EA86AA69CA69EA684F2CF00F0DD
:10117000F29E0F01550EA76EAA0EA76EA682A6B20A
:10118000FED7A6940050F2120001C00EF212F288AF
:10119000F18C192AD8B41A2A1A50C20809E2FF0A97
:1011A00003E119504F0804E21A6A196A939E8A7E75
:1011B000968684B634D0186AF2BE188EF29E640EFB
:1011C000236E6CDF18BEF28E968684B60AD0186A3B
:1011D000F2BE188EF29E640E236E60DF18BEF28E91
:1011E000F3D71C2A1CBE05D01C50070802E2080ECB
:1011F0001C6E0A0EA96E1CC0A8FFA69CA69EA68403
:10120000F2CF00F0F29E0F01550EA76EAA0EA76E48
:10121000A682A6B2FED7A6940050F21200019280D8
:1012200080B033D0186AF2BE188EF29E640E236E20
:1012300035DF18BEF28E928080B00AD0186AF2BEF6
:10124000188EF29E640E236E29DF18BEF28EF3D73D
:101250001C061CBE03D01C500008D8B01C6A0A0E25
:10126000A96E1CC0A8FFA69CA69EA684F2CF00F083
:10127000F29E0F01550EA76EAA0EA76EA682A6B209
:0E128000FED7A6940050F212000183D703009F
:020000040030CA
:0E000000240E3F1E008381000FC00FE00F4052
:00000001FF
;PIC18F4550
