:020000040000FA
:041000001CEF08F0E9
:08100800660ED36E2EEF08F016
:10101000EA6A080EE96EEF500EE0010E016E006AFA
:10102000002EFED7012EFBD74A0E006E002EFED7F3
:1010300000D0EF2EF2D7000CF86AD09EEA6AE96A77
:10104000B896190EAF6EA60EAC6E900EAB6EC15078
:10105000C00B0F09C16E070EB46ED6D7056A0550D6
:10106000040814E3066A0550065C07E2939E8A7E34
:10107000640E086ECDDF062AF6D7020E076EFA0E52
:10108000086EC6DF072EFBD7052AE9D7E7D703008E
:020000040030CA
:0E000000240E3E1E008381000FC00FE00F4053
:00000001FF
;PIC18F4550
;CRC=5184  CREATED="19-abr-14 21:24"
