:020000040000FA
:0410000080EF0AF083
:08100800F76A180FF66E100ED6
:10101000F7220900F55012004000000040000000D7
:1010200000000000000000000000000000000000C0
:101030000000000000000000F76A480FF66E100E76
:10104000F7220900F55012000D0A4C6564204C6926
:101050006761646F210D0A00F76A680FF66E100E63
:10106000F7220900F55012000D0A4C656420446512
:10107000736C696761646F210D0A0000660ED36EA0
:101080009CEF0AF0196A186A250E176E800E166E0C
:101090001A6A1B6A080E1C6E6C6B67931E6A1D6AC7
:1010A000686B69916781F2CF70F0F29EFD0EA96EB8
:1010B000A69CA69EA680A85070BFF28E000AF3E1FF
:1010C000000C6F6B6F5101080AE3036A6F51140F34
:1010D000E96E000E0320EA6EEF6A6F2BF3D7D2DFC2
:1010E000066A010E076E056A000C6D6A696A080ED1
:1010F0006F6E94503009946E0D6AE3DF81EF08F053
:10110000F4D79CEF08F0DDDF6D6A140E6F6E696A2C
:101110006D86010E0D6E90EF08F06DB601D0F3D71D
:101120000D2C08D06DBA06D0686A696A110E696E16
:10113000020E0D6E000CE4D7F0DF0D500208FCE14A
:101140009EEF0AF082518403F3CF01F0F4CF00F058
:101150008503F350002683518403F3500020026E70
:10116000000C836B70C082F0856B080E846FEADF21
:1011700001C0E9FF040E0224EA6EEFCF72F0715154
:10118000020806E172AD02D0716B02D0010E716FE0
:101190007151030817E1840E726F836B70C082F087
:1011A000856B080E846FCEDF040E0124776F000E6E
:1011B0000220786F77C0E9FF040E7825EA6E840E6E
:1011C000EF6E07D0712D03D0C80E726F02D0880E5B
:1011D000726FD8907035036AF2CF75F0F29E14DF0B
:1011E0000900F5CF03F075BFF28E736F03C074F082
:1011F000836B70C082F0856B080E846FA3DF01C023
:1012000075F0010E0124016E000E0220036E01C074
:10121000E9FF040E0324EA6E73C0EFFF74B172811C
:1012200074B37283836B70C082F0856B080E846F19
:1012300089DF01C0E9FF040E0224EA6E72C0EFFFED
:1012400037EF09F069B101D0FDD76B516B2B036A01
:10125000880FE96E050E0320EA6EEFCF6FF06A513A
:101260006B5D05E36991020E706F716F7AD76FC085
:1012700001F0A2EF0AF0036A8051700FE96E0F0EC1
:101280000320EA6EEF521AE0836B80C082F0856B18
:10129000080E846F57DF02C083F001C082F0040E95
:1012A0000124846F000E0220856F84C0E9FF040EC4
:1012B0008525EA6EEFCF86F086AF02D0000E01D012
:1012C000010E016E000C9EA8FED7AD6EE4EF09F092
:1012D0007BC080F0D0DF0152D8B474D0836B7BC068
:1012E00082F0856B080E846F2DDF01C080F0040E44
:1012F0000124826F000E0220836F010E8225016E91
:10130000000E8321036E01C0E9FF040E0324EA6E80
:101310007CC0EFFF7E5102081BE1836B7BC082F033
:10132000856B080E846F0EDF040E0124826F000EA1
:101330000220836F82C0E9FF040E8325EA6EEFCF9F
:101340007FF07FAD02D07E6B02D0010E7E6F17D092
:101350007E51040814E1836B7BC082F0856B080E1C
:10136000846FF0DE01C0E9FF040E0224EA6EEFCFC5
:101370007FF07FAD03D0010E7E6F01D07E6B7E2D9E
:1013800003D0C80E7F6F02D0880E7F6F7DB17F8142
:101390007DB37F83836B7BC082F0856B080E846F87
:1013A000D1DE040E0124826F000E0220836F82C002
:1013B000E9FF040E8325EA6E7FC0EFFF010E016E88
:1013C00005D002D05F0E7FD7000E016E2FEF0AF01E
:1013D00073C080F050DF015245E0836B73C082F030
:1013E000856B080E846FAEDE01C07BF0040E012415
:1013F0007D6F000E02207E6F020E7D25016E000EB5
:101400007E21036E01C0E9FF040E0324EA6EECCFD7
:1014100003F0ED52EFCF79F003C07AF07AC0EAFF23
:1014200079C0E9FF75C0E2FF74C0E1FF77C002F048
:1014300076C001F0015202E0022A02D0025206E018
:10144000E6CFEEFF012EFCD7022EFAD773C07BF059
:1014500077C07DF076C07CF078C07EF039D701503F
:1014600003D000D0000E016E44EF0AF068530DE087
:101470006791020E736F756B270E746F776B68C080
:1014800076F0020E786FA4D7686B000C7291F2BEF2
:101490007281F29E68513F0802E23F0E686F685108
:1014A000682B036A270FE96E000E0320EA6E71C0F5
:1014B000EFFFF29E72B1F28E67A101D0D7DF6BEF22
:1014C0000AF068513F0804E267A101D0CFDFF9D7E5
:1014D00070C071F0DBD7000CEA6A700EE96EEF5055
:1014E0000EE0010E016E006A002EFED7012EFBD722
:1014F0004A0E006E002EFED700D0EF2EF2D7000C61
:10150000F86AD09EEA6AE96AB896190EAF6EA60E1E
:10151000AC6E900EAB6EC150C00B0F09C16E070EC2
:10152000B46E096A040E0A6E0C0E0B6E0D6A126A16
:10153000136A686B6D6BA2D5A5DDFDD5EEDD69A1E3
:1015400021D080D601C06EF06E514C080CE1939E04
:101550008A8E6F6B6F5170DD6F2B006E706FB1DF15
:101560000F0E6F5DF7E16E5144080CE1939E8A9E69
:101570006F6B6F5171DD6F2B006E706FA2DF120EFB
:101580006F5DF7E1939C8A8C020E6F6FFA0E706F9D
:10159000A3DF6F2FFBD7939C8A9C020E6F6FFA0E0E
:0C15A000706F9ADF6F2FFBD7CAD70300D3
:020000040030CA
:0E000000240E3E1E008381000FC00FE00F4053
:00000001FF
;PIC18F4550
;CRC=7335  CREATED="19-abr-14 21:35"
