:020000040000FA
:0410000051EF0BF0B1
:08100800056ED8CF06F0E0CF21
:1010100007F00001E9CF0DF0EACF08F0E1CF09F0C9
:10102000E2CF0AF0D9CF0BF0DACF0CF0F3CF14F007
:10103000F4CF15F0FACF16F000C00FF001C010F099
:1010400002C011F003C012F004C013F09DAA2CEFEF
:1010500008F09EBA4FEF08F00FC000F010C001F08A
:1010600011C002F012C003F013C004F00DC0E9FF7C
:1010700008C0EAFF088E09C0E1FF0AC0E2FF0BC00A
:10108000D9FF0CC0DAFF14C0F3FF15C0F4FF16C07F
:10109000FAFF055007C0E0FF06C0D8FF10009E9A77
:1010A0002CEF08F0660ED36EF2CF34F0F29EFD0EF8
:1010B000A96EA69CA69EA680A85034BEF28E000AF9
:1010C000F3E16AEF0BF0006A016A026A036A406AA0
:1010D000416A426A436A3F503E103D103C102CE08A
:1010E000200E446ED890383639363A363B36403684
:1010F0004136423643363F50435C08E13E50425C45
:1011000005E13D50415C02E13C50405C0FE33C5046
:10111000405E3D50D8A03D3C415E3E50D8A03E3C94
:10112000425E3F50D8A03F3C435ED8800036013637
:1011300002360336442ED6D7EA6A400EE96E000C1A
:10114000BF0E946E240EAC6E900EAB6E080EB86E91
:101150003B6A0F0E3A6E420E396E400E386E3F6A91
:101160003E6A35C03DF034C03CF0ADDF010E005C9E
:10117000366E000E0158376E3750B06E36C0AFFF76
:10118000D89019301A02F350030F1B6EF2CF38F0CB
:10119000F29E1BC0A9FFA69CA69EA680A85038BEA2
:1011A000F28E186E6EEF0BF03C6A3D6A010E3E6ED9
:1011B000DA6AD96A416A340E406EEA6A380EE96E1C
:1011C00041C0E2FF40C0E1FF3EC03FF0D890E55093
:1011D000EE02F3503C22F4503D223F2EF7D73CC0A4
:1011E000DEFF3DC03CF03D6AD8B03D2A402AD8B46D
:1011F000412A3E2A3E500508E0E198EF0BF0016AD3
:10120000026A006A036A3D5002E13C5018E0100E89
:101210003E6ED8903A363B36003603363D50035C7E
:1012200002E13C50005C07E33C50005ED8A003069E
:101230003D50035ED880013602363E2EEAD7000CC0
:10124000ACA2FED73F501824AD6E000C37502608D4
:101250002DE2FF0A03E136500F0828E237C03BF0C9
:1012600036C03AF0270E3D6E100E3C6EC8DF02C04D
:1012700039F001C038F002C03BF001C03AF03D6ADD
:101280000A0E3C6EBCDF00C039F003C03AF01850C3
:1012900000243B6E000E03203C6E300E3B243D6E5E
:1012A000000E3C203E6E3DC03FF0CADF37500208C2
:1012B0002DE2FF0A03E13650E70828E237C03BF091
:1012C00036C03AF0030E3D6EE80E3C6E98DF02C069
:1012D00039F001C038F002C03BF001C03AF03D6A7D
:1012E0000A0E3C6E8CDF00C039F003C03AF0185093
:1012F00000243B6E000E03203C6E300E3B243D6EFE
:10130000000E3C203E6E3DC03FF09ADF375203E1B5
:101310003650630827E237C03BF036C03AF03D6AEA
:10132000640E3C6E6CDF02C039F001C038F002C0C0
:101330003BF001C03AF03D6A0A0E3C6E60DF00C02F
:1013400039F003C03AF0185000243B6E000E032021
:101350003C6E300E3B243D6E000E3C203E6E3DC088
:101360003FF06EDF375203E13650090827E237C0FD
:101370003BF036C03AF03D6A0A0E3C6E40DF02C0D8
:1013800039F001C038F002C03BF001C03AF03D6ACC
:101390000A0E3C6E34DF00C039F003C03AF018503A
:1013A00000243B6E000E03203C6E300E3B243D6E4D
:1013B000000E3C203E6E3DC03FF042DF37C03BF0A8
:1013C00036C03AF03D6A0A0E3C6E19DF00C038F0B4
:1013D00003C039F0185000243A6E000E03203B6E13
:1013E000300E3A243C6E000E3B203D6E3CC03FF078
:1013F00027DF000C36502F6E37C030F0036A2FC045
:1014000001F003C002F0CCEF0BF093928A9200D06F
:1014100000D00000938000D000D00000938200D064
:1014200000D0000093908A9000D000D000009392EA
:101430008A9200D000D00000000C080E466E9392F5
:101440008A92465212E0D890453602E3938002D049
:1014500093908A90938200D000D000004606939229
:101460008A9200D000D00000ECD79380000C9380CB
:1014700000D000D00000938200D000D00000938004
:10148000439081B0438093928A9200D000D00000B4
:10149000000E43B0010E016E000C93928A9200D0B0
:1014A00000D0000093908A9000D000D0000093827A
:1014B00000D000D00000938000D000D00000000CCD
:1014C000EA6A3A0EE96EEF500EE0010E016E006A14
:1014D000002EFED7012EFBD74A0E006E002EFED73F
:1014E00000D0EF2EF2D7000C3650070802E2070EAC
:1014F000366E8BDFD8903634A0093A6E456E9DDF8C
:10150000B6DF38C03AF03B6A38C045F096DFAFDF4F
:1015100037C045F092DFABDF39C045F08EDFA7DF83
:10152000BCDFF2CF3AF0F29EFD0EA96EA69CA69EFD
:10153000A680A8503ABEF28E000AF3E10A0E3A6E77
:10154000BFDF000C080E446E436A93928A9200D06B
:1015500000D00000938000D000D0000044520CE086
:101560009382938081B002D0D89001D0D880433646
:10157000440693928A92F2D743C001F0000C938004
:1015800000D000D00000938200D000D000009392E1
:101590008A9200D000D00000000C3F50070802E201
:1015A000070E3F6E32DFD8903F34A009436E456E80
:1015B00044DF5DDF41C043F0446A41C045F03DDF98
:1015C00056DF40C045F039DF52DF1FDFD8903F348F
:1015D000A109436E456E31DF4ADFB4DF01C042F03E
:1015E000CEDF5BDF42C001F0000C376A37500108E4
:1015F00017E3375205E13538366E0F0E361603D035
:1016000035500F0B366E3650090803E3300E362680
:1016100002D0370E362636C03FF012DE372AE6D724
:10162000FEEF0BF01C6A036A1C503724E96E385039
:101630000320EA6EEF520EE0036A1C503724E96E75
:1016400038500320EA6EEFCF39F039C03FF0F8DDB3
:101650001C2AE9D7000C39503B02F3CF01F0F4CF3C
:1016600000F03C02F35000263A503B02F3500020B9
:10167000026E000CCADED00E456EDFDEF8DE34C02E
:1016800045F0DBDEF4DEC1DED10E456ED6DEEFDEE8
:1016900059DF01C035F073DF00DF35C001F080EFA6
:1016A0000CF0F86AD09E088EEA6AE96AC150C00B55
:1016B0000F09C16E070EB46E0F0E186E330E196E41
:1016C0000A0E1A6EDF0E1B6E1C6A296A2A6A2B6AC2
:1016D0002C6AE8D44B0E356E346A32D5C00EF21245
:1016E0009D8AC150C00B0E09C16EC080C082C084EB
:1016F000C08EC280000E016EC250C30B0110C26EBC
:10170000C282C2B2FED7C3CF1DF0C4CF1EF01F6A83
:10171000206A20C037F01FC036F01EC035F01DC053
:1017200034F03B6A3A6A130E396E880E386E3CD537
:1017300003C037F002C036F001C035F000C034F00D
:1017400003C03BF002C03AF001C039F000C038F0ED
:101750003F6A3E6A030E3D6EFF0E3C6EB4DC03C072
:1017600024F002C023F001C022F000C021F022C00A
:1017700035F021C034F022C037F021C036F066DDEC
:10178000200E3F6E5DDD22C035F021C034F022C056
:1017900037F021C036F02ED6D89029342B6E2A345B
:1017A0002C6E366A2CC038F02BC037F030C039F0C0
:1017B0009BDE010E2B24346E000E2C20356E366A13
:1017C000386E34C037F02FC039F08EDE292AD8B4F5
:1017D0002A2A2A5203E12950950802E22A6A296A34
:1017E000968684B68BD03F6A030E416EE80E406E3B
:1017F000D4DE01C034F001C035F0F7D60A0E316EE8
:101800000D0E326E336A386A310E376E0BDF266A80
:10181000256A26526AE12550090867E3286A276A83
:10182000285256E127500E0853E326C03AF025C04F
:1018300039F03C6A1E0E3B6E0EDF02C035F001C06F
:1018400034F0D8902734026E2834036E02500124FD
:10185000366E03503520376E3F6A416E36C040F019
:101860009CDE01C038F0376A26C03AF025C039F056
:101870003C6A1E0E3B6EEFDE02C03AF001C039F04A
:10188000D8902734026E2834036E025001243B6E38
:1018900003503A203C6E010E3B243D6E000E3C206E
:1018A0003E6E3F6A416E3DC040F077DE0150372406
:1018B0002D6E000E38202E6E2EC037F02DC036F063
:1018C000C5DC200E3F6EBCDC272AD8B4282AA8D756
:1018D0000A0E316E0D0E326E336A386A310E376E73
:1018E000A1DE252AD8B4262A94D70A0E316E0D0E11
:1018F000326E336A386A310E376E94DE346ABAD685
:1019000001C034F0366A030E386EE80E376E01C03F
:1019100039F0EADD939E8A7E040E346EFA0E3A6E3A
:0A192000CFDD342EFBD7ECD6030018
:020000040030CA
:0E000000240E3E1E008381000FC00FE00F4053
:00000001FF
;PIC18F4550
;CRC=4FB5  CREATED="23-abr-14 21:06"
