:020000040000FA
:0410000034EF0DF0CC
:08100800056ED8CF06F0E0CF21
:1010100007F00001E9CF0DF0EACF08F0E1CF09F0C9
:10102000E2CF0AF0D9CF0BF0DACF0CF0F3CF14F007
:10103000F4CF15F0FACF16F000C00FF001C010F099
:1010400002C011F003C012F004C013F09DAA2CEFEF
:1010500008F09EBA76EF08F00FC000F010C001F063
:1010600011C002F012C003F013C004F00DC0E9FF7C
:1010700008C0EAFF088E09C0E1FF0AC0E2FF0BC00A
:10108000D9FF0CC0DAFF14C0F3FF15C0F4FF16C07F
:10109000FAFF055007C0E0FF06C0D8FF1000F2CFEE
:1010A0000EF0F29EF76AB80FF66E100EF7220900E6
:1010B000F5500EBEF28E120082A8568482AA886A6B
:1010C0000000F2CF0EF0F29EF76ADC0FF66E100E03
:1010D000F7220900F5500EBEF28E120082A8569C2F
:1010E000829A8AA6C2DCAAA684620000036A4450DF
:1010F0003E0FE96E000E0320EA6EAECFEFFF036AEB
:1011000044503E0FE96E000E0320EA6EEF504F0888
:10111000D8B41D82036A44503E0FE96E000E0320CE
:10112000EA6EEF50410803E1446A410E3E6E3F50C3
:10113000340808E14050480805E14450020802E143
:10114000020E3C6E3F50340808E140504D0805E166
:101150004450020802E1010E3C6E3F50340807E1A2
:101160004050530804E144500208D8B43C6A3F5050
:10117000340808E14050440805E14450020802E107
:10118000040E3C6E3F50340808E140504E0805E123
:101190004450020802E1050E3C6E3F50340808E15D
:1011A0004050590805E14450020802E1060E3C6E29
:1011B0003F5034080CE141502F0809E241503908F2
:1011C00006E34450030803E1300E415C3D6E3F509E
:1011D000340812E142502F080FE2425039080CE364
:1011E0004450040809E13D500A0DF3CF7FF0300E62
:1011F000425C7F253D6E1D843F50350803E1442C41
:1012000001D01D86442A44500408D8A0446A9E9AFE
:101210002CEF08F0660ED36EF2CF68F0F29EFD0E52
:10122000A96EA69CA69EA680A85068BFF28E000A52
:10123000F3E154EF0DF0006A016A026A036A746B0D
:10124000756B766B776B73517211711170112CE0A5
:10125000200E786FD8906C376D376E376F377437D4
:101260007537763777377351775D08E17251765D60
:1012700005E17151755D02E17051745D0FE37051CC
:10128000745F7151D8A0713D755F7251D8A0723DE5
:10129000765F7351D8A0733D775FD88000360136F2
:1012A00002360336782FD6D7EA6A740EE96E000C40
:1012B000BF0E946E240EAC6E900EAB6E080EB86E20
:1012C0006F6B0F0E6E6F420E6D6F400E6C6F736B17
:1012D000726B69C071F068C070F0ADDF010E005C28
:1012E0006A6F000E01586B6F6B51B06E6AC0AFFF32
:1012F000D89019301A02F350030F1B6EF2CF6CF026
:10130000F29E1BC0A9FFA69CA69EA680A8506CBFFB
:10131000F28E186E5AEF0DF0EA6A780EE96EEF5011
:101320000EE0010E016E006A002EFED7012EFBD7E3
:101330004A0E006E002EFED700D0EF2EF2D7000C22
:10134000ACA2FED7000EB8B6010E016E7DC000F053
:10135000015204E0D8900032012EFCD7005018242E
:10136000AD6E000C1C6A036A1C507A25E96E7B5135
:101370000320EA6EEF520EE0036A1C507A25E96EF4
:101380007B510320EA6EEFCF7CF07CC07DF0D8DF8C
:101390001C2AE9D7000C670EAF6E640E786FBCDFB5
:1013A000EA6A680EE96EF2CF77F0F29E090E016EDE
:1013B000F76A000E74DE0A000900F5CFEEFF012E79
:1013C000FBD777BFF28E7B6B680E7A6FCBDF020E96
:1013D000776FFA0E786FA0DF772FFBD71A0E7D6F2D
:1013E000AFDF020E776FFA0E786F96DF772FFBD79D
:1013F000330EAF6E640E786F8FDFEA6A680EE96EA7
:10140000F2CF77F0F29E090E016EF76A000E47DE0A
:101410000A000900F5CFEEFF012EFBD777BFF28E51
:101420007B6B680E7A6F9EDF020E776FFA0E786F15
:1014300073DF772FFBD71A0E7D6F82DF020E776F77
:10144000FA0E786F69DF772FFBD7190EAF6E640E37
:10145000786F62DFEA6A680EE96EF2CF77F0F29E8B
:10146000090E016EF76A000E1ADE0A000900F5CFB8
:10147000EEFF012EFBD777BFF28E7B6B680E7A6F83
:1014800071DF020E776FFA0E786F46DF772FFBD78A
:101490001A0E7D6F55DF020E776FFA0E786F3CDF04
:1014A000772FFBD7330EAF6E020E776FFA0E786F81
:1014B00033DF772FFBD7EA6A680EE96EF2CF77F059
:1014C000F29E0F0E016EF76A000EFBDD0A000900A6
:1014D000F5CFEEFF012EFBD777BFF28E7B6B680E48
:1014E0007A6F40DF020E776FFA0E786F15DF772F75
:1014F000FBD71A0E7D6F24DF020E776FFA0E786F1E
:101500000BDF772FFBD76DEF0DF06B51016A6A5D32
:1015100003E26AC000F00CD0006A080E6C6F6A37F4
:1015200000366B51005CD8B0006E01366C2FF7D7D7
:10153000000C68C06AF00A0E6B6FE7DF0150100DF7
:10154000F3CF69F068C06AF00A0E6B6FDEDF0050FF
:1015500069251824016EA6EF0DF093928A9200D0AF
:1015600000D00000938000D000D00000938200D013
:1015700000D0000093908A9000D000D00000939299
:101580008A9200D000D00000000C080E7A6F93926F
:101590008A927A5312E0D890793702E3938002D08E
:1015A00093908A90938200D000D000007A079392A3
:1015B0008A9200D000D00000ECD79380000C93807A
:1015C00000D000D00000938200D000D000009380B3
:1015D000779181B0778193928A9200D000D00000F9
:1015E000000E77B1010E016E000C93928A9200D02A
:1015F00000D0000093908A9000D000D00000938229
:1016000000D000D00000938000D000D00000000C7B
:10161000A4DFD00E796FB9DFD2DF69C079F0B5DF12
:10162000CEDF6AC079F0B1DFCADFDFDFF2CF6BF067
:10163000F29EFD0EA96EA69CA69EA680A8506BBF2A
:10164000F28E000AF3E10A0E786F66DEADEF0DF060
:10165000080E786F776B93928A9200D000D00000CA
:10166000938000D000D0000078530CE093829380E8
:1016700081B002D0D89001D0D88077377807939284
:101680008A92F2D777C001F0000C938000D000D08E
:101690000000938200D000D0000093928A9200D084
:1016A00000D00000000C59DFD00E796F6EDF87DFAD
:1016B00068C079F06ADF83DF50DFD10E796F65DFB4
:1016C0007EDFC6DF01C069F0E0DF8FDF69C001F0B7
:1016D000000CACA2FED773511824AD6E000C6C6BDD
:1016E0006C51010817E36C5305E16A396B6F0F0EFB
:1016F0006B1703D06A510F0B6B6F6B51090803E333
:10170000300E6B2702D0370E6B276BC073F0E1DF12
:101710006C2BE6D7000C706B716B010E726FDA6A7E
:10172000D96A756B680E746FEA6A6C0EE96E75C0E3
:10173000E2FF74C0E1FF72C073F0D890E550EE0292
:10174000F3507023F4507123732FF7D770C0DEFF6E
:1017500071C070F0716BD8B0712B742BD8B4752B2D
:10176000722B72510508E0E144EF0EF0016A026A43
:10177000006A036A715102E1705118E0100E726F35
:10178000D8906E376F37003603367151035C02E133
:101790007051005C07E37051005ED8A003067151E0
:1017A000035ED88001360236722FEAD7000C6B51E7
:1017B00026082DE2FF0A03E16A510F0828E26BC0F8
:1017C0006FF06AC06EF0270E716F100E706FCEDF73
:1017D00002C06DF001C06CF002C06FF001C06EF08D
:1017E000716B0A0E706FC2DF00C06DF003C06EF047
:1017F000185000246F6F000E0320706F300E6F259D
:10180000716F000E7021726F71C073F062DF6B51E7
:1018100002082DE2FF0A03E16A51E70828E26BC0E3
:101820006FF06AC06EF0030E716FE80E706F9EDF8E
:1018300002C06DF001C06CF002C06FF001C06EF02C
:10184000716B0A0E706F92DF00C06DF003C06EF016
:10185000185000246F6F000E0320706F300E6F253C
:10186000716F000E7021726F71C073F032DF6B53B5
:1018700003E16A51630827E26BC06FF06AC06EF043
:10188000716B640E706F72DF02C06DF001C06CF09E
:1018900002C06FF001C06EF0716B0A0E706F66DFF0
:1018A00000C06DF003C06EF0185000246F6F000E82
:1018B0000320706F300E6F25716F000E7021726FF4
:1018C00071C073F006DF6B5303E16A51090827E228
:1018D0006BC06FF06AC06EF0716B0A0E706F46DFFE
:1018E00002C06DF001C06CF002C06FF001C06EF07C
:1018F000716B0A0E706F3ADF00C06DF003C06EF0BE
:10190000185000246F6F000E0320706F300E6F258B
:10191000716F000E7021726F71C073F0DADE6BC0F0
:101920006FF06AC06EF0716B0A0E706F1FDF00C03F
:101930006CF003C06DF0185000246E6F000E032091
:101940006F6F300E6E25706F000E6F21716F70C05B
:1019500073F0BFDE000C6A51576E6BC058F0036A1B
:1019600057C001F003C002F079EF0EF06A5107088A
:1019700002E2070E6A6FF1DDD8906A35A0096E6F3A
:10198000796F03DE1CDE6CC06EF06F6B6CC079F09B
:10199000FCDD15DE6BC079F0F8DD11DE6DC079F08D
:1019A000F4DD0DDE22DEF2CF6EF0F29EFD0EA96EAA
:1019B000A69CA69EA680A8506EBFF28E000AF3E1F8
:1019C0000A0E786FA9DC000C6D516F03F3CF01F0A4
:1019D000F4CF00F07003F35000266E516F03F35004
:1019E0000020026E000C7351070802E2070E736FAD
:1019F000B4DDD8907335A009776F796FC6DDDFDD70
:101A000075C077F0786B75C079F0BFDDD8DD74C034
:101A100079F0BBDDD4DDA1DDD8907335A109776FF6
:101A2000796FB3DDCCDD14DE01C076F02EDEDDDDB6
:101A300076C001F0000C1C6A036A1C506B25E96E2D
:101A40006C510320EA6EEF520EE0036A1C506B25C6
:101A5000E96E6C510320EA6EEFCF6DF06DC073F04C
:101A600038DE1C2AE9D7000CF86AD09E088EEA6A94
:101A7000E96AC150C00B0F09C16E070EB46E0F0E9C
:101A8000186E330E196E0A0E1A6EDF0E1B6E1C6A6C
:101A90001D901D923D6A446A1D941D96516A526ABA
:101AA000536A546A0AEF09F0250E696F800E686F59
:101AB00058EF09F0C00EF2129D8AC150C00B0E09FA
:101AC000C16EC080C082C084C08EC280000E016E14
:101AD000C250C30B0110C26E5ED4020E686FFA0EC4
:101AE000786F1ADC682FFBD7EA6A590EE96EF2CFDD
:101AF00068F0F29E0F0E016EF76A000E61EC08F0BE
:101B00000A000900F5CFEEFF012EFBD768BFF28E69
:101B10007B6B590E7A6F26DC020E686FFA0E786FB7
:101B20008CEC09F0682FFAD71A0E7D6F09DC020ED3
:101B3000686FFA0E786F8CEC09F0682FFAD7446A58
:101B40001DA449D01D943DC068F0F3D401C068F0D5
:101B50003CC069F001C06AF05BD5020E686FA3DD7E
:101B600001C068F001C06AF0BADD3A0E736FB1DDF2
:101B7000010E686F98DD01C068F001C06AF0AFDD4A
:101B80003A0E736FA6DD686B8EDD01C068F001C090
:101B90006AF0A5DD200E736F9CDD040E686F83DD97
:101BA00001C068F001C06AF09ADD2F0E736F91DDFD
:101BB000050E686F78DD01C068F001C06AF08FDD46
:101BC0002F0E736F86DD060E686F6DDD01C068F045
:101BD00001C06AF084DD1DA63FD01D96020E686F1D
:101BE00062DD01C068F001C06AF079DD3A0E736F02
:101BF00070DD010E686F57DD01C068F001C06AF04A
:101C00006EDD3A0E736F65DD686B4DDD01C068F007
:101C100001C06AF064DD200E736F5BDD040E686F37
:101C200042DD01C068F001C06AF059DD2F0E736F0C
:101C300050DD050E686F37DD01C068F001C06AF045
:101C40004EDD2F0E736F45DD060E686F2CDD01C073
:101C500068F001C06AF043DDC282C2B2FED7C3CFD2
:101C600045F0C4CF46F0476A486A48C06BF047C0A9
:101C70006AF046C069F045C068F06F6B6E6B130E7A
:101C80006D6F880E6C6F47D503C06BF002C06AF0B1
:101C900001C069F000C068F003C06FF002C06EF0D0
:101CA00001C06DF000C06CF0736B726B030E716F4E
:101CB000FF0E706F1BEC09F003C04CF002C04BF03C
:101CC00001C04AF000C049F04AC069F049C068F05C
:101CD0004AC06BF049C06AF06ADD200E736FF9DC10
:101CE0004AC069F049C068F04AC06BF049C06AF068
:101CF00032D6D8905134536E5234546E6A6B54C0FD
:101D00006CF053C06BF058C06DF030DE010E532400
:101D1000686F000E5420696F6A6B6C6F68C06BF05F
:101D200057C06DF023DE512AD8B4522A525203E133
:101D30005150950802E2526A516A968684B686D05E
:101D4000F2CF68F0F29E050EA96EA69CA69EA68014
:101D5000A85068BFF28E696F69C06AF0C0DC4E6A35
:101D60004D6A4E526AE14D50090867E3506A4F6A66
:101D7000505256E14F500E0853E34EC06EF04DC026
:101D80006DF0706B1E0E6F6F1FDE02C069F001C038
:101D900068F0D8904F34026E5034036E0250012424
:101DA0006A6F035069216B6F736B756F6AC074F053
:101DB0001ADE01C06CF06B6B4EC06EF04DC06DF062
:101DC000706B1E0E6F6F00DE02C06EF001C06DF012
:101DD000D8904F34026E5034036E025001246F6F5E
:101DE00003506E21706F010E6F25716F000E702110
:101DF000726F736B756F71C074F0F5DD01506B25F8
:101E0000556E000E6C21566E56C06BF055C06AF0D0
:101E1000CEDC200E736F5DDC4F2AD8B4502AA8D7D1
:101E20000A0E596E0D0E5A6E5B6A6C6B590E6B6F13
:101E300002DE4D2AD8B44E2A94D70A0E596E0D0EE2
:101E40005A6E5B6A6C6B590E6B6FF5DD4D2AD8B418
:101E50004E2A4E50000802E24E6A4D6A050EA96EE7
:101E60004DC0A8FFA69CA69EA684F2CF00F0F29ECD
:101E70000F01550EA76EAA0EA76EA682A6B2FED7B8
:101E8000A6940050F212939E8A7E040E0001686FA1
:101E9000FA0E786F8CEC09F0682FFAD751D6030050
:020000040030CA
:0E000000240E3E1E008381000FC00FE00F4053
:00000001FF
;PIC18F4550
;CRC=641B  CREATED="27-abr-14 20:26"
