:020000040000FA
:04100000C0EF0AF043
:08100800056ED8CF06F0E0CF21
:1010100007F00001E9CF0DF0EACF08F0E1CF09F0C9
:10102000E2CF0AF0D9CF0BF0DACF0CF0F3CF14F007
:10103000F4CF15F0FACF16F000C00FF001C010F099
:1010400002C011F003C012F004C013F09DAA2CEFEF
:1010500008F09EBA4FEF08F00FC000F010C001F08A
:1010600011C002F012C003F013C004F00DC0E9FF7C
:1010700008C0EAFF088E09C0E1FF0AC0E2FF0BC00A
:10108000D9FF0CC0DAFF14C0F3FF15C0F4FF16C07F
:10109000FAFF055007C0E0FF06C0D8FF1000036A42
:1010A00025501F0FE96E000E0320EA6EAECFEFFF52
:1010B000036A25501F0FE96E000E0320EA6EEF5001
:1010C000410803E1256A410E1F6E2050340808E1F3
:1010D0002150480805E12550020802E1020E1D6E6C
:1010E0002050340808E121504D0805E12550020840
:1010F00002E1010E1D6E2050340807E12150530813
:1011000004E125500208D8B41D6A2050340808E1D3
:101110002150440805E12550020802E1040E1D6E2D
:101120002050340808E121504E0805E125500208FE
:1011300002E1050E1D6E2050340808E121505908C7
:1011400005E12550020802E1060E1D6E205034080C
:101150000CE122502F0809E22250390806E32550FD
:10116000030803E1300E225C1E6E2050340812E1A9
:1011700023502F080FE2235039080CE325500408B0
:1011800009E11E500A0DF3CF38F0300E235C3824ED
:101190001E6E26802050350803E1252C01D02682C2
:1011A000252A25500408D8A0256A9E9A2CEF08F01D
:1011B000660ED36ED9EF0AF0006A016A026A036A0A
:1011C000336A346A356A366A3250311030102F1063
:1011D0002CE0200E376ED8902B362C362D362E363E
:1011E00033363436353636363250365C08E13150D7
:1011F000355C05E13050345C02E12F50335C0FE385
:101200002F50335E3050D8A0303C345E3150D8A0DF
:10121000313C355E3250D8A0323C365ED880003644
:10122000013602360336372ED6D7EA6A330EE96E18
:1012300030EF09F0BF0E946E240EAC6E900EAB6EC4
:10124000080EB86E2E6A0F0E2D6E420E2C6E400EDA
:101250002B6E326A316A28C030F027C02FF0ACD72D
:10126000010E005C296E000E01582A6E2A50B06EE5
:1012700029C0AFFFD89019301A02F350030F1B6E2C
:10128000F2CF2BF0F29E1BC0A9FFA69CA69EA680C3
:10129000A8502BBEF28E186EDDEF0AF02A50016ABC
:1012A000295C03E229C000F00CD0006A080E2B6E06
:1012B000293600362A50005CD8B0006E01362B2E3D
:1012C000F7D7000C27C029F00A0E2A6EE7DF01507D
:1012D000100DF3CF28F027C029F00A0E2A6EDEDFAA
:1012E000005028241824016EF5EF0AF093928A9298
:1012F00000D000D00000938000D000D00000938286
:1013000000D000D0000093908A9000D000D0000060
:1013100093928A9200D000D00000000C080E2F6E2D
:1013200093928A922F5212E0D8902E3602E3938045
:1013300002D093908A90938200D000D000002F06B4
:1013400093928A9200D000D00000ECD79380000CDA
:10135000938000D000D00000938200D000D0000025
:1013600093802C9081B02C8093928A9200D000D0F0
:101370000000000E2CB0010E016E000C93928A92B8
:1013800000D000D0000093908A9000D000D00000E0
:10139000938200D000D00000938000D000D00000E5
:1013A000000CEA6A2C0EE96EEF500EE0010E016EA1
:1013B000006A002EFED7012EFBD74A0E006E002ECB
:1013C000FED700D0EF2EF2D7000C90DFD00E2E6E9D
:1013D000A5DFBEDF28C02EF0A1DFBADF29C02EF0C6
:1013E0009DDFB6DFCBDFF2CF2AF0F29EFD0EA96EB5
:1013F000A69CA69EA680A8502ABEF28E000AF3E103
:101400000A0E2C6ECEDFFCEF0AF0080E2C6E2B6A53
:1014100093928A9200D000D00000938000D000D038
:1014200000002C520CE09382938081B002D0D890BF
:1014300001D0D8802B362C0693928A92F2D72BC0FB
:1014400001F0000C938000D000D00000938200D007
:1014500000D0000093928A9200D000D00000000CCF
:1014600045DFD00E2E6E5ADF73DF27C02EF056DF19
:101470006FDF3CDFD10E2E6E51DF6ADFC6DF01C0A9
:1014800028F0E0DF7BDF28C001F0000CACA2FED723
:101490002B501824AD6E000C2A6A2A50010817E35D
:1014A0002A5205E12838296E0F0E291603D028503C
:1014B0000F0B296E2950090803E3300E292602D0AC
:1014C000370E292629C02BF0E1DF2A2AE6D7000CA7
:1014D0002750070802E2070E276E08DFD89027344E
:1014E000A0092B6E2E6E1ADF33DF29C02BF02C6A79
:1014F00029C02EF013DF2CDF28C02EF00FDF28DFED
:10150000F5DED8902734A1092B6E2E6E07DF20DF81
:101510007CDF01C02AF096DF31DF2AC001F084EFC2
:101520000BF02850070802E2070E286EDFDED89085
:101530002834A0092C6E2E6EF1DE0ADF2AC02CF0B2
:101540002D6A2AC02EF0EADE03DF29C02EF0E6DE87
:10155000FFDE2BC02EF0E2DEFBDE10DFF2CF2CF040
:10156000F29EFD0EA96EA69CA69EA680A8502CBE3B
:10157000F28E000AF3E10A0E2C6E13DF95EF0BF0EA
:10158000F86AD09E088EEA6AE96AC150C00B0F095A
:10159000C16E070EB46E0F0E186E330E196E0A0E62
:1015A0001A6EDF0E1B6E1C6A1E6A256A2690269232
:1015B000FFD54B0E286E276A3DD6C00EF2129D8ACB
:1015C000C150C00B0E09C16EC080C082C084C08EE5
:1015D000C280000E016EC250C30B0110C26E26A065
:1015E00049D026901EC027F06DD601C027F01DC03F
:1015F00028F001C029F0E9D6020E276E31DF01C0C4
:1016000027F001C028F048DF3A0E2B6E3FDF010EB5
:10161000276E26DF01C027F001C028F03DDF3A0E1B
:101620002B6E34DF276A1CDF01C027F001C028F0D1
:1016300033DF200E2B6E2ADF040E276E11DF01C070
:1016400027F001C028F028DF2F0E2B6E1FDF050EBC
:10165000276E06DF01C027F001C028F01DDF2F0E26
:101660002B6E14DF060E276EFBDE01C027F001C0D3
:1016700028F012DF26A23FD02692020E276EF0DE5F
:1016800001C027F001C028F007DF3A0E2B6EFEDE06
:10169000010E276EE5DE01C027F001C028F0FCDE58
:1016A0003A0E2B6EF3DE276ADBDE01C027F001C0A5
:1016B00028F0F2DE200E2B6EE9DE040E276ED0DE5F
:1016C00001C027F001C028F0E7DE2F0E2B6EDEDE12
:1016D000050E276EC5DE01C027F001C028F0DCDE54
:1016E0002F0E2B6ED3DE060E276EBADE01C027F05A
:1016F00001C028F0D1DE968684B60BD0276A030E8F
:10170000296EE80E286EE4D601C027F001C028F04B
:10171000C3DE276AA5DE01C027F0286A030E2A6E01
:10172000E80E296E01C02BF0FCD6939E8A7E040E33
:10173000276EFA0E2C6E35DE272EFBD750D703000E
:020000040030CA
:0E000000240E3E1E008381000FC00FE00F4053
:00000001FF
;PIC18F4550
;CRC=7F54  CREATED="20-abr-14 11:18"
