:020000040000FA
:040000000000000CF0
:04100000ABEF08F05A
:08100800056ED8CF06F0E0CF21
:1010100007F00001E9CF0DF0EACF08F0E1CF09F0C9
:10102000E2CF0AF0D9CF0BF0DACF0CF0F3CF14F007
:10103000F4CF15F0FACF16F000C00FF001C010F099
:1010400002C011F003C012F004C013F09DA02CEFF9
:1010500008F09EB054EF08F0F2A832EF08F0F2B2B8
:101060007FEF08F00FC000F010C001F011C002F0D7
:1010700012C003F013C004F00DC0E9FF08C0EAFF7E
:1010800009C0E1FF0AC0E2FF0BC0D9FF0CC0DAFFC4
:1010900014C0F3FF15C0F4FF16C0FAFF055007C0D7
:1010A000E0FF06C0D8FF1000197019B002D08A9E68
:1010B00001D08A8E939ECE50CFCF03F0DC0F1D6EF1
:1010C0000B0E03201E6E1EC0CFFF1DC0CEFF9E90D4
:1010D00032EF08F0EA6A1E0EE96EEF500FE0010EE3
:1010E000016E006A002EFED7012EFBD74A0E006E5D
:1010F000002EFED700000000EF2EF1D7000C1A6A78
:101100001A50040814E3939C8A8C040E1D6EFA0E88
:101110001E6EE0DF1D2EFBD7939C8A9C040E1D6E75
:10112000FA0E1E6ED7DF1D2EFBD71A2AE9D7F292D0
:1011300032EF08F0660ED36EF2CF1BF0F29EFD0E7A
:10114000A96EA69CA69EA680A8501BBEF28E000A81
:10115000F3E1BEEF08F0F86AD09E0D8EEA6AE96A04
:10116000B896190EAF6E260EAC6E900EAB6EC150D7
:10117000C00B0F09C16E070EB46EDCD7C00EF212A1
:101180009D80B50ECD6E0B0ECF6EDC0ECE6E9390A5
:101190008A80020E1B6E186AF2BE188EF29EFA0E3C
:1011A0001E6E98DF18BEF28E1B2EF5D793908A9094
:1011B000020E1B6E186AF2BE188EF29EFA0E1E6E9A
:0E11C00089DF18BEF28E1B2EF5D7E1D7030093
:020000040030CA
:0E000000240E3F1E008381000FC00FE00F4052
:00000001FF
;PIC18F2550
