:020000040000FA
:040000000000000CF0
:04100000AEEF08F057
:08100800056ED8CF06F0E0CF21
:1010100007F00001E9CF0DF0EACF08F0E1CF09F0C9
:10102000E2CF0AF0D9CF0BF0DACF0CF0F3CF14F007
:10103000F4CF15F0FACF16F000C00FF001C010F099
:1010400002C011F003C012F004C013F09DAA2CEFEF
:1010500008F09EBA6EEF08F00FC000F010C001F06B
:1010600011C002F012C003F013C004F00DC0E9FF7C
:1010700008C0EAFF09C0E1FF0AC0E2FF0BC0D9FFC8
:101080000CC0DAFF14C0F3FF15C0F4FF16C0FAFF5E
:10109000055007C0E0FF06C0D8FF1000F2CF0EF0E9
:1010A000F29EF76AB60FF66E100EF7220900F550A1
:1010B0000EBEF28E120041300D0A0000F2CF0EF08B
:1010C000F29EF76AD60FF66E100EF7220900F55061
:1010D0000EBEF28E120041310D0A00009EAAFED70C
:1010E000AECF1AF01A50410810E19EAAFED7AECF3B
:1010F0001BF01B50300A03E0010A04E006D0939C69
:101100008A8C03D0939C8A9C00D09E9A2CEF08F086
:10111000660ED36EF2CF18F0F29EFD0EA96EA69C5D
:10112000A69EA680A85018BEF28E000AF3E1C1EF79
:1011300008F0EA6A190EE96EEF500FE0010E016E39
:10114000006A002EFED7012EFBD74A0E006E002E3D
:10115000FED700000000EF2EF1D7000CF86AD09EF9
:101160000D8EEA6AE96AB896190EAF6E260EAC6E5D
:10117000900EAB6EC150C00B0F09C16E070EB46E5E
:10118000C7D7C00EF2129D8A939C8A9C9298899828
:1011900092988988186A185081DF000905E0182A9A
:1011A0009EA8FED7AD6EF7D792988998939E8A8EA7
:1011B000040E186EFA0E196EBCDF182EFBD792982B
:1011C0008988186A18507ADF000905E0182A9EA855
:1011D000FED7AD6EF7D792988998939E8A9E040E9B
:1011E000186EFA0E196EA5DF182EFBD7D1D70300A3
:020000040030CA
:0E000000240E3F1E008381000FC00FE00F4052
:00000001FF
;PIC18F2550
