:020000040000FA
:0410000018EF08F0ED
:08100800EA6A070EE96EEF50E1
:101010000EE00F0E016E006A002EFED7012EFBD7E8
:101020008F0E006E002EFED70000EF2EF2D7000CC0
:10103000F86AD09EEA6AE96AB886E10EAF6E040EDD
:10104000B06EA60EAC6E900EAB6EC150C00B0F0909
:10105000C16E070EB46E93908A80020E066EFA0E71
:10106000076ED2DF062EFBD793908A90939C8A8CD2
:10107000020E066EFA0E076EC7DF062EFBD7939C94
:101080008A9C939E8A8E020E066EFA0E076EBCDF55
:0C109000062EFBD7939E8A9EDED703003D
:020000040030CA
:0E000000240E3E1E008381000FC00FE00F4053
:00000001FF
;PIC18F4550
;CRC=1F02  CREATED="18-fev-15 22:51"
