:020000040000FA
:040000000000000CF0
:041000002BEF08F0DA
:08100800660ED36EF2CF06F074
:10101000F29EFD0EA96EA69CA69EA680A85006BEB6
:10102000F28E000AF3E13DEF08F0EA6A070EE96E7E
:10103000EF500FE0010E016E006A002EFED7012E68
:10104000FBD74A0E006E002EFED700000000EF2EE8
:10105000F1D765EF08F0F86AD09EEA6AE96AB896B7
:10106000190EAF6E260EAC6E900EAB6EC150C00B5B
:101070000F09C16E070EB46EC7D79382059081B277
:1010800005809384059281B40582000E05B0010E9F
:10109000066E000E05B2010E0618016EE8B002D011
:1010A000059401D0058405B402D08A9E01D08A8EB1
:1010B000939E057605B602D08A9001D08A809390DF
:1010C000020E066EFA0E076EB0D7062EFBD7D5D7E6
:0210D00003001B
:020000040030CA
:0E000000240E3F1E008381000FC00FE00F4052
:00000001FF
;PIC18F2550
