:020000040000FA
:040000000000000CF0
:041000004CEF10F0B1
:08100800056ED8CF06F0E0CF21
:1010100007F00001E9CF0DF0EACF08F0E1CF09F0C9
:10102000E2CF0AF0D9CF0BF0DACF0CF0F3CF14F007
:10103000F4CF15F0FACF16F000C00FF001C010F099
:1010400002C011F003C012F004C013F0A0AA2CEFEC
:1010500008F0A1BA21EF0FF00FC000F010C001F0AE
:1010600011C002F012C003F013C004F00DC0E9FF7C
:1010700008C0EAFF09C0E1FF0AC0E2FF0BC0D9FFC8
:101080000CC0DAFF14C0F3FF15C0F4FF16C0FAFF5E
:10109000055007C0E0FF06C0D8FF1000F76AAC0F8C
:1010A000F66E100EF7220900F5501200040301003D
:1010B000000000000000000000000000F76ACC0FF4
:1010C000F66E100EF7220900F55012000400010020
:1010D000000000000000000000000000F76AEC0FB4
:1010E000F66E100EF7220900F550120040000800BD
:1010F00040000000000000000000000000000000B0
:101100000000000000000000000000000DAE03D051
:10111000F2CF0EF0F29EF76A2E0FF66E110EF72246
:101120000900F5500DAE02D00EBEF28E1200400046
:10113000000040000000000000000000000000006F
:101140000000000000000000000000000000F76A3E
:101150005E0FF66E110EF7220900F550120009021B
:101160004300020100C03209040000010202010034
:1011700005240010010424020205240600010524B0
:10118000010001070581030800FA09040100020AB1
:10119000000000070502024000FA07058202400035
:1011A000FA00F76AB20FF66E110EF7220900F55039
:1011B00012000200F76AC40FF66E110EF722090042
:1011C000F55012001201100102000040D8040A007C
:1011D000000101020001F76AE60FF66E110EF72218
:1011E0000900F550120004030904080370006900A7
:1011F00063002003730061006E00640072006F00E2
:1012000020006A0075006300610020007500730013
:101210006200F2CF0EF0F29EF76A2C0FF66E120EFD
:10122000F7220900F5500EBEF28E12000D0A0A4593
:101230004550524F4D3A0D0A0000F2CF0EF0F29E8B
:10124000F76A540FF66E120EF7220900F5500EBE23
:10125000F28E12000A0D0000F2CF0EF0F29EF76A35
:10126000720FF66E120EF7220900F5500EBEF28EC6
:1012700012000D0A456E64657265636F20706172BD
:10128000612065736372657665723A200000F2CF63
:101290000EF0F29EF76AA80FF66E120EF722090002
:1012A000F5500EBEF28E12000D0A4E6F766F20764C
:1012B000616C6F723A2000006D92699468942CEF13
:1012C0000FF06A6A689235EF0FF02C6A2B6A250ED0
:1012D0002A6E800E296E2D6A2E6A080E2F6E7F6B85
:1012E0007A93316A306A7B6B7C917A81000C9F6BB8
:1012F0009F5101080AE3036A9F51270FE96E000E10
:101300000320EA6EEF6A9F2BF3D7DFDF1A6A010E24
:101310001B6E196A000C010EA86FA8510F080EE38E
:10132000700EA825016E0F0E036ED8B0032A01C0FF
:10133000E9FF03C0EAFFEF6AA82BEFD71E6A1D6A18
:10134000000C400E0401016F050E036F026B880E46
:10135000006F046B050E076F400E066F0001000C56
:101360006A6A686A9F0E6B6E390E696E6E6ABFDFBD
:10137000D2DF160E706E68A602D06896FCD76D9804
:10138000E0DF030E1F6E3BEF0FF0698468986D82FB
:1013900041EF0FF0689C47EF0FF070A002D0D1DF53
:1013A0007090689A4DEF0FF0A3C020F0000CFF0E74
:1013B000206E000CA16B265235E0A1513F0832E3AC
:1013C0001C5005E0020A0DE0010A15E01ED0036A78
:1013D0002550F2CFA3F0F29EBADEA3BFF28EA26F29
:1013E00014D0036A2550F2CFA3F0F29EF4DEA3BF1F
:1013F000F28EA26F0AD0036A2550F2CFA3F0F29EBC
:10140000D9DEA3BFF28EA26F00D0252A2606A151F5
:10141000A12B036A400FE96E050E0320EA6EA2C0FD
:10142000EFFFC9D7265204E1A151400801E0196A33
:10143000A1C0A3F0B9DF000C256A1C6A05010351A5
:10144000010A000105E0030A08E0010A09E01FD0D3
:10145000120E266E030E1C6E1CD0430E266E19D083
:10146000020E1C6E036A05010251210FE96E000E87
:101470000320EA6EEFCF25F0036A2550F2CFA0F0EB
:10148000F29E0001A8DEA0BFF28E266E02D08FDF92
:101490000CD00501075305E12650065D02E206C5A2
:1014A00026F0010E196E000185DF6FEF0BF0A053DF
:1014B00004E1040E1F6E2FDFC1D0050E1F6EA36F57
:1014C000800EA26F010EA16FA1510F08D8A0B6D057
:1014D000A46B036AA151F2CFA8F0F29EEFDDA8BF82
:1014E000F28E000A51E0040EA46FD890A135036A71
:1014F000F2CFA8F0F29E0ADE0900F5CF03F0A8BFF4
:10150000F28EA56F03C0A6F0A151080DF350010F94
:10151000016E040E036ED8B0032A01C0E9FF03C0B8
:10152000EAFFA5C0EFFFA151080DF350020F016EB5
:10153000040E036ED8B0032A01C0E9FF03C0EAFF1E
:10154000A3C0ECFFED52A2C0EFFFD890A135036A13
:10155000F2CFA8F0F29EDADD0900F5CF03F0A8BFC4
:10156000F28EA2270350A323880EA76FA6B1A781EE
:10157000A6B3A783A151080DF3CF01F0040E01C05B
:10158000E9FFEA6EA7C0EFFF036AA151F2CFA8F00E
:10159000F29E84DDA8BFF28E000A31E0A483A1513F
:1015A000080DF350060F016E040E036ED8B0032A27
:1015B00001C0E9FF03C0EAFFA3C0ECFFED52A2C0E7
:1015C000EFFFD890A135036AF2CFA8F0F29E86DD36
:1015D0000900F5CF03F0A8BFF28EA2270350A32382
:1015E000A151080DF350040F016E040E036ED8B024
:1015F000032A01C0E9FF03C0EAFF400EEF6EA451C9
:10160000060802E10E0EA46F036AA151F2CFA8F002
:10161000F29E44DDA8BFF28E020801E0A489700E9C
:10162000A125016E0F0E036ED8B0032A01C0E9FF99
:1016300003C0EAFFA4C0EFFFA12B46D769EF0BF070
:101640000501015100010DE0010A14E0020A1EE04B
:10165000060A27E0030A2CE00E0A2BE0010A2FE01D
:101660003CD01BC040F50501416B020E0001A36F89
:101670009BDE35D00501022D06D0010E1B160001A0
:10168000A36B92DE02D0000192DE29D00501022D6B
:1016900005D01B820001A36B87DE02D0000187DE2C
:1016A0001ED0020E196E02C524F0A36B7DDE17D08A
:1016B000C3D61AC040F5010EA36F76DE10D0050127
:1016C0000251010808E302C51AF002C5A0F00001AA
:1016D000EED6A36B69DE000102D069DE00D0E7EF31
:1016E0000CF01AC0A0F005010151000105E00A0A42
:1016F0000BE0010A2BE03CD00501406B416B020E70
:101700000001A36F51DE36D0A0531EE0010EA05D94
:10171000036AF2CFA2F0F29E44DDA2BFF28E016E08
:101720000501045DD8A002D000010ED0036A045167
:10173000270FE96E000E0320EA6EEFCF40F5010E91
:101740000001A36F31DE01D032DE14D0A0530EE0D1
:10175000036A05010451270FE96E000E0320EA6EAB
:1017600002C5EFFF0001A36B1FDE01D020DE02D017
:101770001EDE00D0E7EF0CF0A191A0BFA181A09FD9
:10178000A1A110D0036AA051F2CFA2F0F29E86DC94
:10179000A2BFF28E000A02E1000E01D0010E016E1E
:1017A00010D00FD0036AA051F2CFA2F0F29E86DCD7
:1017B000A2BFF28E000A02E1000E01D0010E016EFE
:1017C00000D053EF0CF0A191A0BFA181A09FA1A1D7
:1017D00010D0A051080DF350040F016E040E036EDB
:1017E000D8B0032A01C0E9FF03C0EAFF880EEF6EFC
:1017F00009D0A051080DF3CF01F0040E01C0E9FF9C
:10180000EA6EEF6A62EF0CF0A191A0BFA181A09FE8
:10181000A1A110D0A051080DF350040F016E040EC9
:10182000036ED8B0032A01C0E9FF03C0EAFF840EAB
:10183000EF6E0AD0A051080DF3CF01F0040E01C0E5
:10184000E9FFEA6E840EEF6E68EF0CF0A191A0BF85
:10185000A181A09FA1A110D0A051080DF350040FA9
:10186000016E040E036ED8B0032A01C0E9FF03C065
:10187000EAFFEFCFA2F00AD0A051080DF3CF01F09C
:10188000040E01C0E9FFEA6EEFCFA2F0A2AF02D0D2
:10189000A2B502D0000E01D0010E016E72EF0CF065
:1018A00004C5A0F069D7015229E005010151010AE0
:1018B000000105E0020A09E0030A0DE01DD004C59D
:1018C000A0F081D7A36B70DD19D004C5A0F09CD720
:1018D000A36B6ADD13D00501406B416B04C5A0F01A
:1018E0000001B4D7015204E0010E0501406F000170
:1018F000020EA36F59DD02D05ADD00D0E7EF0CF0E5
:10190000FE0E206E000C0501042D01D002D0045300
:1019100048E1015100010BE0010A0DE0210A1CE041
:10192000010A1FE0030A2EE0010A31E037D0010E60
:10193000806FE6DF35D0050EEA6E400EE96EE26A92
:10194000320EE16E080E016EE6CFEEFF012EFCD7DF
:1019500006C5A3F029DD24D0020E806F7A83D0DF84
:101960001FD0050EEA6E400EE96EE26A290EE16EA6
:10197000070E016EE6CFEEFF012EFCD7070EA36F18
:1019800013DD0ED002C57FF0A36B0EDD09D002C5BA
:1019900031F003C530F0A36B07DD02D008DD00D0C5
:1019A00005010001E7EF0CF0196A050100517F0BFA
:1019B000000107E0010A06E0030A05E0230A04E04B
:1019C00004D03ED68ED66CD79ED7F1DC00D0CCEFBB
:1019D0000EF0A051080DF3CF01F0040E01C0E9FF95
:1019E000EA6EEFCFA2F0A151020806E1A2AD02D04B
:1019F000A16B02D0010EA16FA151030812E1840E68
:101A0000A26FA051080DF350040F016E040E036E77
:101A1000D8B0032A01C0E9FF03C0EAFF840EEF6ECD
:101A200009D0A12D03D0C80EA26F04D0A15302E1AA
:101A3000880EA26F036A010E026EA051006E05E0CF
:101A4000D89002360336002EFBD70250FF0A006EF4
:101A5000FF0E031A00501D1603501E16D890A03515
:101A6000036AF2CFA5F0F29E86EC08F00900F5CFEC
:101A700003F0A5BFF28EA36F03C0A4F0A051080D20
:101A8000F350010F016E040E036ED8B0032A01C09B
:101A9000E9FF03C0EAFFA3C0EFFFA4B1A281A4B392
:101AA000A283A051080DF3CF01F0040E01C0E9FF9D
:101AB000EA6EA2C0EFFF000CAC51080DF350040F0A
:101AC000016E040E036ED8B0032A01C0E9FF03C003
:101AD000EAFFEFCFB0F0B0BF5BD0AC51080DF350D0
:101AE000050F016E040E036ED8B0032A01C0E9FF92
:101AF00003C0EAFFADC0EFFFAF51020816E1AC51E1
:101B0000080DF350040F016E040E036ED8B0032AC3
:101B100001C0E9FF03C0EAFFEFCFB0F0B0AD02D0E3
:101B2000AF6B02D0010EAF6F13D0AF51040810E1BC
:101B3000AC51080DF3CF01F0040E01C0E9FFEA6ECD
:101B4000EFCFB0F0B0AD03D0010EAF6F01D0AF6BEF
:101B5000AF2D03D0C80EB06F04D0AF5302E1880E92
:101B6000B06FAEB1B081AEB3B083AC51080DF350DD
:101B7000040F016E040E036ED8B0032A01C0E9FF02
:101B800003C0EAFFB0C0EFFF010E016E03D000D02A
:101B9000000E016E000C8051010A03E0030A12E0FE
:101BA00022D0EA6A320EE96E050EE26EE16A080E94
:101BB000016EE6CFEEFF012EFCD7A36BD4EC09F04B
:101BC000806B15D0EA6A290EE96E050EE26EE16AB5
:101BD000070E016EE6CFEEFF012EFCD7806BA36BE4
:101BE000D4EC09F004D0806BA1EC09F000D019EF1F
:101BF0000EF0A151080DF350010F016E040E036E9B
:101C0000D8B0032A01C0E9FF03C0EAFF036AEFCF9F
:101C100001F003C002F012EF0EF07C817E6B020E29
:101C2000A16FE7D701C07DF01EEF0EF0A05302E1D7
:101C3000B2D714D0A051020802E1EFD70FD0036A47
:101C4000010E026EA051006E05E0D89002360336F8
:101C5000002EFBD702501D1203501E12000CA1C013
:101C60006EFFA15303E0040E1F6E02D0020E1F6E22
:101C70003FEF0EF01A6A196A24C0A1F0F0D7B6EF50
:101C80000EF0A151080DF350040F016E040E036E07
:101C9000D8B0032A01C0E9FF03C0EAFFEFCFA9F0E3
:101CA000A9BF3FD0A151080DF350060F016E040EDD
:101CB000036ED8B0032A01C0E9FF03C0EAFFECCFEE
:101CC00003F0ED52EFCFAAF003C0ABF0A86BA76B07
:101CD000A851A55D1AE303E1A451A75D16E2A2C0D5
:101CE000E9FFA3C0EAFFEFCFAEF0ABC0EAFFAAC0A6
:101CF000E9FFAEC0EFFFAA2BD8B4AB2BA22BD8B410
:101D0000A32BA72BD8B4A82BE3D7A1C0ACF0A5C0B8
:101D1000AEF0A4C0ADF0A6C0AFF0CEDE015003D04F
:101D200000D0000E016E000C7B530DE07A91020E84
:101D3000A16FA36B3A0EA26FA56B7BC0A4F0020E3D
:101D4000A66F9FDF7B6B000C7B5302E0EDDF01D0C1
:101D50007A81BBEF0EF0A0530AE1192C03D0DAEC24
:101D600009F004D01950020801E184D704D0A05131
:101D7000020801E1E9D7000C6C309F6F9F339F335D
:101D80001F0E9F176C523BE1040100513C0B3408BD
:101D90001BE1046B000108D6203C05D0A06B030EAC
:101DA000A16F17DE0ED0A06B020EA16F12DE2050C5
:101DB000FE0807E0AC6BAE6B20C0ADF0040EAF6F59
:101DC0007BDE6D9819D0040100513C0B040815E12D
:101DD0000001A06B2BDFA06B020EA16FFADD20507B
:101DE000FE080AE0203C01D007D0AC6BAE6B20C0EF
:101DF000ADF0010EAF6F60DE040120D000016C5029
:101E0000040812E1FF0E206EA06BA5DF203C01D07C
:101E100008D0AC6BAE6B20C0ADF0020EAF6F4CDEE5
:101E200002D0A1EC09F009D06CB404D09FC0A0F09E
:101E3000FDDE03D09FC0A0F08EDF0401000152EF51
:101E40000FF01F5201E12FD068522DE068A404D09A
:101E500069A402D05CEF09F06DA201D024D068A281
:101E600004D069A202D061EF09F068A004D069A093
:101E700002D0B0EF09F068A804D069A802D0C5EF7D
:101E800009F068AC04D069AC02D0CAEF09F068AAC6
:101E900004D069AA02D0CDEF09F068A604D069A6E3
:101EA00002D06AD76896A19A2CEF08F0660ED36E1E
:101EB000F2CF85F0F29EFD0EA96EA69CA69EA6808E
:101EC000A85085BFF28E000AF3E168EF10F06D6A4A
:101ED000696A080E6F6E94503009946E1F6A186A12
:101EE000F2BE188EF29E77EC09F018BEF28E1E6AD2
:101EF0001D6A9EEF0FF0186AF2BE188EF29E77EC04
:101F000009F018BEF28E6D6A140E6F6E696A6D86E6
:101F1000010E1F6E8FEF0FF06DB601D0ECD71F2CA6
:101F20000BD06DBA09D0686A696AA08AC00EF21235
:101F3000110E696E020E1F6E000CC9D7EDDF1F5027
:101F40000208FCE16BEF10F01A5202E10400FCD72A
:101F500070EF10F08C91F2BE8C81F29E7B513F08A5
:101F600002E23F0E7B6F7B517B2B036A3A0FE96ED7
:101F7000000E0320EA6E8BC0EFFFF29E8CB1F28E52
:101F80007AA107D0186AF2BE188EF29ECDDE18BE76
:101F9000F28EDBEF0FF07B513F080AE27AA107D007
:101FA000186AF2BE188EF29EBFDE18BEF28EF3D70C
:101FB0008AC08BF0CFD7000C89BF0FD00F0E006EF8
:101FC000883900160A0E005C03E2300E002602D0AB
:101FD0008951002600C08AF0DEDF0F0E88170A0E36
:101FE000885D02E2300E02D0899F8951882788C01F
:101FF0008AF0D1DF98EF10F07CB101D0FDD77E518F
:102000007E2B036A880FE96E050E0320EA6EEFCF80
:1020100088F07D517E5D0BE37C91186AF2BE188ECC
:10202000F29E020EA06FA16FD4DC18BEF28E88C0A3
:1020300001F01CEF10F0E0D701C087F087C08AF0F4
:10204000AADF8751390805E3300E875D016E0FD096
:102050000ED08751600806E287517A0803E3875162
:10206000DF0B01D08751BF0F0A0F016E00D0000CAB
:10207000E2DF01C086F0DFDF01C085F08551DD08B9
:1020800004E186C001F007D006D08651100DF35050
:102090008525016E00D0000CF86AD09E0D8EEA6A8C
:1020A000E96AB896190EAF6E260EAC6E900EAB6E46
:1020B000C150C00B0F09C16E070EB46E1F6A216AB2
:1020C000040E226E0C0E236E266A7B6B806BEED69E
:1020D00065EC09F032D77AB301D0FDD71DDF34D7D4
:1020E000939E8A8E856B855109EC09F0000904E006
:1020F000852B8A6F50DFF7D7816B8151030829E365
:10210000826B82510F0819E38151100DF350822523
:10211000866FF2CF87F0F29EA96EA69CA69EA6803F
:10212000A85087BFF28E876F886F570E896F44D78C
:10213000200E8A6F30DF822BE4D7856B85511DEC32
:1021400009F0000904E0852B8A6F25DFF7D7812B82
:10215000D4D7856B85512CEC09F0000904E0852B60
:102160008A6F19DFF7D784DF01C083F0856B855153
:1021700047EC09F0000904E0852B8A6F0CDFF7D7E4
:1021800077DF01C084F083C0A9FF84C0A8FFA69CAC
:10219000A69EA684F2CF00F0F29E0F01550EA76E08
:1021A000AA0EA76EA682A6B2FED7A6940050F2127F
:1021B00000017A757AB502D08A9E01D08A8E939EEC
:0421C00091D70300B0
:0200000400F00A
:0300000053414E1B
:020000040030CA
:0E000000240E3F1E008381000FC00FE00F4052
:00000001FF
;PIC18F2550
