:020000040000FA
:0410000099EF17F05D
:08100800056ED8CF06F0E0CF21
:1010100007F00001E9CF0DF0EACF08F0E1CF09F0C9
:10102000E2CF0AF0D9CF0BF0DACF0CF0F3CF14F007
:10103000F4CF15F0FACF16F000C00FF001C010F099
:1010400002C011F003C012F004C013F09DAA2CEFEF
:1010500008F09EBA3BEF09F00FC000F010C001F09D
:1010600011C002F012C003F013C004F00DC0E9FF7C
:1010700008C0EAFF088E09C0E1FF0AC0E2FF0BC00A
:10108000D9FF0CC0DAFF14C0F3FF15C0F4FF16C07F
:10109000FAFF055007C0E0FF06C0D8FF1000F2CFEE
:1010A0000EF0F29EF76AB80FF66E100EF7220900E6
:1010B000F5500EBEF28E120090A8A8A05E625C628F
:1010C00040646060409E961A1486DEDCE8CADCE864
:1010D0005AA8F2E0CA7440E8CAF0E85ED0E8DAD86C
:1010E0001A141A1478C6CADCE8CAE47C78D2CCE4B4
:1010F000C2DACA40E6E4C67A44D0E8E8E0E6745EC4
:101100005EC8DEC6E65CCEDEDECED8CA5CC6DEDAFF
:101110005EE6E0E4CAC2C8E6D0CACAE85ECCDEE455
:10112000DAA4CAE6E0DEDCE6CA7ECCDEE4DAD6CAC1
:10113000F27AC888B4EEACD8A468A48E6AE6A8AEE9
:101140006A9CCAD8DE64A4D89CA0AC8AA264B2DA35
:10115000C66C9AA24CD2CCE24A64604CCADCE8E489
:10116000F25C605CE6D2DCCED8CA7A00F2CF0EF038
:10117000F29EF76A860FF66E110EF7220900F550FF
:101180000EBEF28E12004CCADCE8E4F25C625CE651
:10119000D2DCCED8CA7A0000F2CF0EF0F29EF76A07
:1011A000B20FF66E110EF7220900F5500EBEF28E48
:1011B00012004CE6EAC4DAD2E87AA6EAC4DAD2E847
:1011C000447C785ED2CCE4C2DACA7C7890627C94AB
:1011D000DED2DC40E8D2DCF2EAE4D85CC6DEDA5EDD
:1011E000A6C2DCAAA684785E90627C78A07C785E39
:1011F00090627C82C6C6CAE6E64078C240D0E4CAA5
:10120000CC7A44D0E8E8E0E6745E5EC8DEC6E65C10
:10121000CEDEDECED8CA5CC6DEDA5EE6E0E4CAC266
:10122000C8E6D0CACAE85EC6C6C67ED6CAF27A602A
:1012300082E06666649E82D0DC9ACA64C888B4EE96
:10124000ACD8A468A48E6AE6A8AE6A9CCAD8DE644C
:10125000A4D89CA0AC8AA264B2DAC6447C98DECE44
:10126000E6785EC27C785EA07C785EC6CADCE8CA9E
:10127000E47C1A140000036A7951390FE96E000EFC
:101280000320EA6EAECFEFFF79C07AF0036A79519E
:10129000390FE96E000E0320EA6EEF50430A0BE0AF
:1012A0000A0A0BE0080A0BE0120A0BE0790A0BE0CD
:1012B000730A0BE00ED038800CD038820AD0388008
:1012C00008D0388006D0388004D0796B590E396E3A
:1012D00000D03950590825E1792D23D03950200804
:1012E00002E0000E00D0AE504C0A09E0080A0BE004
:1012F000140A0CE0040A0DE00D0A0FE012D0939ED0
:101300008A8E38840ED0939E8A9E0BD0939E8A8EAE
:1013100008D0939E8A7E388404D0796B590E396E3A
:1013200000D03A504F0805E13B504E0802E1939E31
:101330008A8E3A504F0808E13B50460805E13C5080
:10134000460802E1939E8A9E792B79513F08D8A0E6
:10135000796B9E9A2CEF08F0006A016A026A036AB0
:1013600001014F6B506B516B526B4E514D114C1133
:101370004B112CE0200E536FD89047374837493730
:101380004A374F375037513752374E51525D08E187
:101390004D51515D05E14C51505D02E14B514F5DA6
:1013A0000FE34B514F5F4C51D8A04C3D505F4D5116
:1013B000D8A04D3D515F4E51D8A04E3D525FD880D0
:1013C0000036013602360336532FD6D7010EEA6EA9
:1013D0004F0EE96E000104EF0AF0BF0E946E240E6A
:1013E000AC6E900EAB6E080EB86E01014A6BB70E74
:1013F000496F1B0E486F476B4E6B4D6B44C14CF1F0
:1014000043C14BF10001A8D7010E0101005C456FFB
:10141000000E0158466F4651B06E45C1AFFFD890DF
:1014200019301A02F350030F1B6EF2CF47F1F29EF0
:101430001BC0A9FFA69CA69EA680A85047BFF28EFF
:10144000186E0001F1EF17F0010EEA6E450EE96E1D
:10145000EF500EE00F0E016E006A002EFED7012E37
:10146000FBD78F0E006E002EFED70000EF2EF2D7B6
:10147000000CACA2FED7000EB8B6010E016E010141
:1014800049C100F0015204E0D8900032012EFCD78F
:1014900000501824AD6E0001000CACA2FED7010173
:1014A0004C511824AD6E0001000C110E0101436F68
:1014B000020EB06E700EAF6E080E446FFA0E456FDE
:1014C0000001C2DF0101442FF9D7380E4325446FD4
:1014D00044C149F10001CDDF480E0101496F00010F
:1014E000C8DF480E0101496F0001C3DF939E8A7E69
:1014F000020E0101446FFA0E456F0001A5DF0101E4
:10150000442FF9D7939E8A7E38B021D0040EB06E56
:10151000E10EAF6E100E446FFA0E456F000194DFBE
:101520000101442FF9D7380E4325446F496F00015C
:10153000A0DF480E0101496F00019BDF480E010149
:10154000496F000196DF939E8A7E0101DDD73890B6
:101550004307BD0E4325446F496F00018ADFC20E69
:101560000101496F000185DFC60E0101496F0001CD
:1015700080DFE80E0101496F00017BDFDE0E010113
:10158000496F000176DFE40E0101496F000171DF50
:10159000F20E0101496F00016CDF400E0101496F3D
:1015A000000167DFA40E0101496F000162DF1A0E1E
:1015B0000101496F00015DDF040E0101446FFA0E65
:1015C000456F000141DF0101442FF9D7939E8A7EC8
:1015D00038B040D0080E446FFA0E456F000134DF7A
:1015E0000101442FF9D7BD0E4325446F496F000117
:1015F00040DFC20E0101496F00013BDFC60E010151
:10160000496F000136DFE80E0101496F000131DF4B
:10161000DE0E0101496F00012CDFE40E0101496F6C
:10162000000127DFF20E0101496F000122DF400EA9
:101630000101496F00011DDFA40E0101496F000186
:1016400018DF1A0E0101496F000113DF939E8A7E95
:101650000101BED738904307D80E4325446F496F28
:10166000000107DFCA0E0101496F000102DFE80E29
:101670000101496F0001FDDE400E0101496F0001CB
:10168000F8DED20E0101496F0001F3DE400E0101C8
:10169000496F0001EEDEC20E0101496F0001E9DE73
:1016A000200E01014C6F0001F8DE2AC04CF1F5DE7E
:1016B0002BC04CF1F2DE2CC04CF1EFDE2DC04CF112
:1016C000ECDE2EC04CF1E9DE2FC04CF1E6DE30C07E
:1016D0004CF1E3DE31C04CF1E0DE32C04CF1DDDE36
:1016E00033C04CF1DADE34C04CF1D7DE35C04CF1FA
:1016F000D4DE36C04CF1D1DE37C04CF1CEDE1A0E4E
:101700000101496F0001B5DE040E0101446FFA0EBC
:10171000456F000199DE0101442FF9D7939E8A7E1F
:1017200038B065D0080E446FFA0E456F00018CDEAC
:101730000101442FF9D7D80E4325446F496F0001AA
:1017400098DECA0E0101496F000193DEE80E010127
:10175000496F00018EDE400E0101496F000189DEF4
:10176000D20E0101496F000184DE400E0101496F74
:1017700000017FDEC20E0101496F00017ADE200EFA
:1017800001014C6F000189DE2AC04CF186DE2BC0BE
:101790004CF183DE2CC04CF180DE2DC04CF17DDE9F
:1017A0002EC04CF17ADE2FC04CF177DE30C04CF108
:1017B00074DE31C04CF171DE32C04CF16EDE33C0EC
:1017C0004CF16BDE34C04CF168DE35C04CF165DEA7
:1017D00036C04CF162DE37C04CF15FDE1A0E0101FB
:1017E000496F000146DE939E8A7E010199D73890A9
:1017F0004307D90E4325446F496F00013ADECA0EF4
:101800000101496F000135DEE80E0101496F000159
:1018100030DE400E0101496F00012BDED20E0101C6
:10182000496F000126DE400E0101496F000121DEF3
:10183000CE0E0101496F00011CDE400E0101496F0F
:10184000000117DE2AC04CF128DE2BC04CF125DE4A
:101850002CC04CF122DE2DC04CF11FDE2EC04CF10D
:101860001CDE2FC04CF119DE30C04CF116DE31C049
:101870004CF113DE32C04CF110DE33C04CF10DDE02
:1018800033502E0804E134C04CF107DE06D034C0DA
:101890004CF103DE35C04CF100DE1A0E0101496F38
:1018A0000001E7DD040E0101446FFA0E456F0001EF
:1018B000CBDD0101442FF9D7939E8A7E38B066D0E4
:1018C000080E446FFA0E456F0001BEDD0101442F82
:1018D000F9D7D90E4325446F496F0001CADDCA0EFE
:1018E0000101496F0001C5DDE80E0101496F0001EA
:1018F000C0DD400E0101496F0001BBDDD20E0101C8
:10190000496F0001B6DD400E0101496F0001B1DDF4
:10191000CE0E0101496F0001ACDD400E0101496F9F
:101920000001A7DD2AC04CF1B8DD2BC04CF1B5DDBC
:101930002CC04CF1B2DD2DC04CF1AFDD2EC04CF10E
:10194000ACDD2FC04CF1A9DD30C04CF1A6DD31C0BB
:101950004CF1A3DD32C04CF1A0DD33C04CF19DDD74
:1019600033502E0804E134C04CF197DD06D034C06A
:101970004CF193DD35C04CF190DD1A0E0101496F39
:10198000000177DD939E8A7E010198D73890430746
:10199000DA0E4325446F496F00016BDDCA0E010169
:1019A000496F000166DDE80E0101496F000161DD4C
:1019B000400E0101496F00015CDDD20E0101496F4B
:1019C000000157DD400E0101496F000152DDC80ED4
:1019D0000101496F00014DDD400E0101496F000119
:1019E00048DD600E0101496F000143DD1A0E01015F
:1019F000496F00013EDD020E0101446FFA0E456F92
:101A0000000122DD0101442FF9D7939E8A7E38B070
:101A100040D0040E446FFA0E456F000115DD010140
:101A2000442FF9D7DA0E4325446F496F000121DDB9
:101A3000CA0E0101496F00011CDDE80E0101496F6A
:101A4000000117DD400E0101496F000112DDD20EC9
:101A50000101496F00010DDD400E0101496F0001D8
:101A600008DDC80E0101496F000103DD400E0101D0
:101A7000496F0001FEDC600E0101496F0001F9DCD5
:101A80001A0E0101496F0001F4DC939E8A7E010168
:101A9000BED738904307DB0E4325446F496F0001E2
:101AA000E8DCCA0E0101496F0001E3DCE80E010128
:101AB000496F0001DEDC400E0101496F0001D9DCF5
:101AC000EA0E0101496F0001D4DC400E0101496FAB
:101AD0000001CFDCC40E0101496F0001CADC400ED9
:101AE0000101496F0001C5DC620E0101496F00016F
:101AF000C0DC720E0101496F0001BBDC640E010104
:101B0000496F0001B6DC600E0101496F0001B1DCD4
:101B1000600E0101496F0001ACDC1A0E0101496F32
:101B20000001A7DC939E8A7E040E0101446FFA0E29
:101B3000456F000189DC0101442FF9D7939E8A7E0D
:101B4000DB0E4325446F496F000193DCCA0E01018F
:101B5000496F00018EDCE80E0101496F000189DC4C
:101B6000400E0101496F000184DCD20E0101496F72
:101B700000017FDCE00E0101496F00017ADC400EBC
:101B80000101496F000175DCE00E0101496F0001A0
:101B900070DCE40E0101496F00016BDCDE0E010117
:101BA000496F000166DCE80E0101496F000161DC4C
:101BB000DE0E0101496F00015CDC400E0101496F3E
:101BC000000157DC620E0101496F000152DC700E0A
:101BD0000101496F00014DDC1A0E0101496F00013E
:101BE00048DC040E0101446FFA0E456F00012CDC45
:101BF0000101442FF9D7939E8A7EDB0E4325446F63
:101C0000496F000136DCCA0E0101496F000131DC69
:101C1000E80E0101496F00012CDC400E0101496F03
:101C2000000127DCDE0E0101496F000122DC400EBD
:101C30000101496F00011DDCC80E0101496F00015F
:101C400018DC400E0101496F000113DCA60E0101F2
:101C5000496F00010EDCC20E0101496F000109DC71
:101C6000DC0E0101496F000104DCAA0E0101496F7D
:101C7000000139EC0AF0A60E0101496F000139ECB0
:101C80000AF0840E0101496F000139EC0AF05A0E86
:101C90000101496F000139EC0AF0CC0E0101496FD6
:101CA000000139EC0AF0D80E0101496F000139EC4E
:101CB0000AF0F20E0101496F000139EC0AF01A0E28
:101CC0000101496F000139EC0AF0020E0101446F75
:101CD000FA0E456F000124EC0AF00101442FF8D7F9
:101CE000939E8A7EDB0E4325446F496F000139ECD9
:101CF0000AF0C20E0101496F000139EC0AF0EC0E46
:101D00000101496F000139EC0AF0CA0E0101496F67
:101D1000000139EC0AF01A0E0101496F000139EC9B
:101D20000AF0040E0101446FFA0E456F000124EC25
:101D30000AF00101442FF8D7939E8A7E38B037D03D
:101D4000080E446FFA0E456F000124EC0AF0010101
:101D5000442FF8D7DB0E4325446F496F000139EC5F
:101D60000AF0C20E0101496F000139EC0AF0EC0ED5
:101D70000101496F000139EC0AF0CA0E0101496FF7
:101D8000000139EC0AF01A0E0101496F000139EC2B
:101D90000AF0040E0101446FFA0E456F000124ECB5
:101DA0000AF00101442FF8D7939E8A7EC7D7389056
:101DB0004307DA0E4325446F496F000139EC0AF0FE
:101DC000CA0E0101496F000139EC0AF0C40E01018D
:101DD000496F000139EC0AF0DE0E0101496F000184
:101DE00039EC0AF0DE0E0101496F000139EC0AF00E
:101DF000E80E0101496F000139EC0AF01A0E0101E9
:101E0000496F000139EC0AF0040E0101446FFA0E2B
:101E1000456F000124EC0AF00101442FF8D7939E8E
:101E20008A7E38B00DD0100E446FFA0E456F000157
:101E300024EC0AF00101442FF8D7939E8A7EF1D753
:101E4000DA0E4325446F496F000139EC0AF0CA0EDF
:101E50000101496F000139EC0AF0C40E0101496F1C
:101E6000000139EC0AF0DE0E0101496F000139EC86
:101E70000AF0DE0E0101496F000139EC0AF0E80EAC
:101E80000101496F000139EC0AF01A0E0101496F96
:101E9000000139EC0AF0389001014307020EB06EE0
:101EA000700EAF6E640E456F000124EC0AF03F0E19
:101EB00001014325446F44C149F1000139EC0AF0A6
:101EC000480E0101496F000139EC0AF0480E01018A
:101ED000496F000139EC0AF0939E8A7E020E0101DF
:101EE000446FFA0E456F000124EC0AF00101442F03
:101EF000F8D7939E8A7E38B02BD0100E446FFA0E1E
:101F0000456F000124EC0AF00101442FF8D73F0E81
:101F10004325446F496F000139EC0AF0480E010176
:101F2000496F000139EC0AF0480E0101496F0001C8
:101F300039EC0AF0939E8A7E020E0101446FFA0E7C
:101F4000456F000124EC0AF00101442FF8D7D3D7E4
:101F500038904307DE0E4325446F496F000139EC8A
:101F60000AF0CA0E0101496F000139EC0AF0E80ECF
:101F70000101496F000139EC0AF0400E0101496F7F
:101F8000000139EC0AF0EE0E0101496F000139EC55
:101F90000AF0400E0101496F000139EC0AF0E60E2B
:101FA0000101496F000139EC0AF0400E0101496F4F
:101FB000000139EC0AF01DC04CF14DEC0AF01EC0D6
:101FC0004CF14DEC0AF01FC04CF14DEC0AF020C072
:101FD0004CF14DEC0AF021C04CF14DEC0AF022C05E
:101FE0004CF14DEC0AF023C04CF14DEC0AF024C04A
:101FF0004CF14DEC0AF025C04CF14DEC0AF026C036
:102000004CF14DEC0AF027C04CF14DEC0AF028C021
:102010004CF14DEC0AF029C04CF14DEC0AF02AC00D
:102020004CF14DEC0AF02BC04CF14DEC0AF02CC0F9
:102030004CF14DEC0AF02DC04CF14DEC0AF01A0EAB
:102040000101496F000139EC0AF0020E0101446FF1
:10205000FA0E456F000124EC0AF00101442FF8D775
:10206000939E8A7E38B093D0080E446FFA0E456F67
:10207000000124EC0AF00101442FF8D7DE0E4325BD
:10208000446F496F000139EC0AF0CA0E0101496F33
:10209000000139EC0AF0E80E0101496F000139EC4A
:1020A0000AF0400E0101496F000139EC0AF0EE0E12
:1020B0000101496F000139EC0AF0400E0101496F3E
:1020C000000139EC0AF0E60E0101496F000139EC1C
:1020D0000AF0400E0101496F000139EC0AF01DC001
:1020E0004CF14DEC0AF01EC04CF14DEC0AF01FC053
:1020F0004CF14DEC0AF020C04CF14DEC0AF021C03F
:102100004CF14DEC0AF022C04CF14DEC0AF023C02A
:102110004CF14DEC0AF024C04CF14DEC0AF025C016
:102120004CF14DEC0AF026C04CF14DEC0AF027C002
:102130004CF14DEC0AF028C04CF14DEC0AF029C0EE
:102140004CF14DEC0AF02AC04CF14DEC0AF02BC0DA
:102150004CF14DEC0AF02CC04CF14DEC0AF02DC0C6
:102160004CF14DEC0AF01A0E0101496F000139ECF7
:102170000AF0020E0101446FFA0E456F000124ECD3
:102180000AF00101442FF8D7939E8A7E6BD73890CE
:102190004307DF0E4325446F496F000139EC0AF015
:1021A000CA0E0101496F000139EC0AF0E80E010185
:1021B000496F000139EC0AF0400E0101496F00013E
:1021C00039EC0AF0EE0E0101496F000139EC0AF01A
:1021D000400E0101496F000139EC0AF0E00E0101E7
:1021E000496F000139EC0AF0400E0101496F00010E
:1021F00039EC0AF024C04CF14DEC0AF025C04CF14A
:102200004DEC0AF026C04CF14DEC0AF027C04CF121
:102210004DEC0AF028C04CF14DEC0AF029C04CF10D
:102220004DEC0AF02AC04CF14DEC0AF02BC04CF1F9
:102230004DEC0AF02CC04CF14DEC0AF02DC04CF1E5
:102240004DEC0AF02EC04CF14DEC0AF02FC04CF1D1
:102250004DEC0AF030C04CF14DEC0AF031C04CF1BD
:102260004DEC0AF032C04CF14DEC0AF033C04CF1A9
:102270004DEC0AF034C04CF14DEC0AF01A0E01019D
:10228000496F000139EC0AF0020E0101446FFA0EA9
:10229000456F000124EC0AF00101442FF8D7939E0A
:1022A0008A7E38B093D0080E446FFA0E456F000155
:1022B00024EC0AF00101442FF8D7DF0E4325446FC8
:1022C000496F000139EC0AF0CA0E0101496F0001A3
:1022D00039EC0AF0E80E0101496F000139EC0AF00F
:1022E000400E0101496F000139EC0AF0EE0E0101C8
:1022F000496F000139EC0AF0400E0101496F0001FD
:1023000039EC0AF0E00E0101496F000139EC0AF0E6
:10231000400E0101496F000139EC0AF024C04CF174
:102320004DEC0AF025C04CF14DEC0AF026C04CF102
:102330004DEC0AF027C04CF14DEC0AF028C04CF1EE
:102340004DEC0AF029C04CF14DEC0AF02AC04CF1DA
:102350004DEC0AF02BC04CF14DEC0AF02CC04CF1C6
:102360004DEC0AF02DC04CF14DEC0AF02EC04CF1B2
:102370004DEC0AF02FC04CF14DEC0AF030C04CF19E
:102380004DEC0AF031C04CF14DEC0AF032C04CF18A
:102390004DEC0AF033C04CF14DEC0AF034C04CF176
:1023A0004DEC0AF01A0E0101496F000139EC0AF0F8
:1023B000020E0101446FFA0E456F000124EC0AF091
:1023C0000101442FF8D7939E8A7E6BD7389043073C
:1023D000E00E4325446F496F000139EC0AF0CA0E44
:1023E0000101496F000139EC0AF0E80E0101496F63
:1023F000000139EC0AF0400E0101496F000139EC8F
:102400000AF0C60E0101496F000139EC0AF0DE0E38
:102410000101496F000139EC0AF0DA0E0101496F40
:10242000000139EC0AF0DA0E0101496F000139ECC4
:102430000AF0400E0101496F000139EC0AF0DE0E8E
:102440000101496F000139EC0AF0E00E0101496F0A
:10245000000139EC0AF0CA0E0101496F000139ECA4
:102460000AF0DC0E0101496F000139EC0AF0400E60
:102470000101496F000139EC0AF0540E0101496F66
:10248000000139EC0AF0A60E0101496F000139EC98
:102490000AF0C20E0101496F000139EC0AF0DC0EAE
:1024A0000101496F000139EC0AF0AA0E0101496FE0
:1024B000000139EC0AF0A60E0101496F000139EC68
:1024C0000AF0840E0101496F000139EC0AF0540E44
:1024D0000101496F000139EC0AF01A0E0101496F40
:1024E000000139EC0AF0020E0101446FFA0E456F4B
:1024F000000124EC0AF00101442FF8D7939E8A7E54
:1025000038B099D0040E446FFA0E456F000124ECE8
:102510000AF00101442FF8D7E00E4325446F496FBC
:10252000000139EC0AF0CA0E0101496F000139ECD3
:102530000AF0E80E0101496F000139EC0AF0400E83
:102540000101496F000139EC0AF0C60E0101496F23
:10255000000139EC0AF0DE0E0101496F000139EC8F
:102560000AF0DA0E0101496F000139EC0AF0DA0EC7
:102570000101496F000139EC0AF0400E0101496F79
:10258000000139EC0AF0DE0E0101496F000139EC5F
:102590000AF0E00E0101496F000139EC0AF0CA0EA1
:1025A0000101496F000139EC0AF0DC0E0101496FAD
:1025B000000139EC0AF0400E0101496F000139ECCD
:1025C0000AF0540E0101496F000139EC0AF0A60E21
:1025D0000101496F000139EC0AF0C20E0101496F97
:1025E000000139EC0AF0DC0E0101496F000139EC01
:1025F0000AF0AA0E0101496F000139EC0AF0A60E9B
:102600000101496F000139EC0AF0840E0101496FA4
:10261000000139EC0AF0540E0101496F000139EC58
:102620000AF01A0E0101496F000139EC0AF0939E7D
:102630008A7E010165D738904307E10E4325446F38
:10264000496F000139EC0AF0CA0E0101496F00011F
:1026500039EC0AF0E80E0101496F000139EC0AF08B
:10266000400E0101496F000139EC0AF0C60E01016C
:10267000496F000139EC0AF0DE0E0101496F0001DB
:1026800039EC0AF0DA0E0101496F000139EC0AF069
:10269000DA0E0101496F000139EC0AF0400E010128
:1026A000496F000139EC0AF0E40E0101496F0001A5
:1026B00039EC0AF0CA0E0101496F000139EC0AF049
:1026C000DA0E0101496F000139EC0AF0DE0E01015A
:1026D000496F000139EC0AF0E80E0101496F000171
:1026E00039EC0AF0CA0E0101496F000139EC0AF019
:1026F000400E0101496F000139EC0AF03C0E010166
:10270000496F000139EC0AF01A0E0101496F00010E
:1027100039EC0AF0939E8A7E020E0101446FFA0E94
:10272000456F000124EC0AF00101442FF8D7939E75
:102730008A7E38B07BD0040E446FFA0E456F0001DC
:1027400024EC0AF00101442FF8D7E10E4325446F31
:10275000496F000139EC0AF0CA0E0101496F00010E
:1027600039EC0AF0E80E0101496F000139EC0AF07A
:10277000400E0101496F000139EC0AF0C60E01015B
:10278000496F000139EC0AF0DE0E0101496F0001CA
:1027900039EC0AF0DA0E0101496F000139EC0AF058
:1027A000DA0E0101496F000139EC0AF0400E010117
:1027B000496F000139EC0AF0E40E0101496F000194
:1027C00039EC0AF0CA0E0101496F000139EC0AF038
:1027D000DA0E0101496F000139EC0AF0DE0E010149
:1027E000496F000139EC0AF0E80E0101496F000160
:1027F00039EC0AF0CA0E0101496F000139EC0AF008
:10280000400E0101496F000139EC0AF03C0E010154
:10281000496F000139EC0AF01A0E0101496F0001FD
:1028200039EC0AF0939E8A7E010183D738904307E2
:10283000E20E4325446F496F000139EC0AF0CA0EDD
:102840000101496F000139EC0AF0E80E0101496FFE
:10285000000139EC0AF0400E0101496F000139EC2A
:102860000AF0D20E0101496F000139EC0AF0E00EC6
:102870000101496F000139EC0AF0400E0101496F76
:10288000000139EC0AF0D80E0101496F000139EC62
:102890000AF0DE0E0101496F000139EC0AF0C60EA4
:1028A0000101496F000139EC0AF0C20E0101496FC4
:1028B000000139EC0AF0D80E0101496F000139EC32
:1028C0000AF0400E0101496F000139EC0AF0700E68
:1028D0000101496F000139EC0AF0600E0101496FF6
:1028E000000139EC0AF01A0E0101496F000139ECC0
:1028F0000AF0020E0101446FFA0E456F000124EC4C
:102900000AF00101442FF8D7939E8A7E38B06FD029
:10291000040E446FFA0E456F000124EC0AF0010129
:10292000442FF8D7E20E4325446F496F000139EC7C
:102930000AF0CA0E0101496F000139EC0AF0E80EF5
:102940000101496F000139EC0AF0400E0101496FA5
:10295000000139EC0AF0D20E0101496F000139EC97
:102960000AF0E00E0101496F000139EC0AF0400E57
:102970000101496F000139EC0AF0D80E0101496FDD
:10298000000139EC0AF0DE0E0101496F000139EC5B
:102990000AF0C60E0101496F000139EC0AF0C20EBF
:1029A0000101496F000139EC0AF0D80E0101496FAD
:1029B000000139EC0AF0400E0101496F000139ECC9
:1029C0000AF0700E0101496F000139EC0AF0600E47
:1029D0000101496F000139EC0AF01A0E0101496F3B
:1029E000000139EC0AF0939E8A7E01018FD738905E
:1029F0004307E30E4325446F496F000139EC0AF0A9
:102A0000C20E0101496F000139EC0AF0EC0E010120
:102A1000496F000139EC0AF0CA0E0101496F00014B
:102A200039EC0AF01A0E0101496F000139EC0AF085
:102A3000040E0101446FFA0E456F000124EC0AF008
:102A40000101442FF8D7939E8A7E38B039D0080E02
:102A5000446FFA0E456F000124EC0AF00101442F87
:102A6000F8D7E30E4325446F496F000139EC0AF0B3
:102A7000C20E0101496F000139EC0AF0EC0E0101B0
:102A8000496F000139EC0AF0CA0E0101496F0001DB
:102A900039EC0AF01A0E0101496F000139EC0AF015
:102AA000040E0101446FFA0E456F000124EC0AF098
:102AB0000101442FF8D7939E8A7E939E8A7EC5D7C4
:102AC00038904307D20E4325446F496F000139EC1B
:102AD0000AF0DE0E0101496F000139EC0AF0D20E56
:102AE0000101496F000139EC0AF0DC0E0101496F68
:102AF000000139EC0AF0400E0101496F000139EC88
:102B00000AF01DC04CF14DEC0AF01EC04CF14DEC2A
:102B10000AF01FC04CF14DEC0AF020C04CF14DEC16
:102B20000AF021C04CF14DEC0AF022C04CF14DEC02
:102B30000AF023C04CF14DEC0AF024C04CF14DECEE
:102B40000AF025C04CF14DEC0AF026C04CF14DECDA
:102B50000AF027C04CF14DEC0AF028C04CF14DECC6
:102B60000AF029C04CF14DEC0AF02AC04CF14DECB2
:102B70000AF02BC04CF14DEC0AF02CC04CF14DEC9E
:102B80000AF02DC04CF14DEC0AF02EC04CF14DEC8A
:102B90000AF01A0E0101496F000139EC0AF0939E08
:102BA0008A7E100E0101446FFA0E456F000124EC7D
:102BB0000AF00101442FF8D7939E8A7E38B27BD069
:102BC000100E446FFA0E456F000124EC0AF001016B
:102BD000442FF8D7D20E4325446F496F000139ECDA
:102BE0000AF0DE0E0101496F000139EC0AF0D20E45
:102BF0000101496F000139EC0AF0DC0E0101496F57
:102C0000000139EC0AF0400E0101496F000139EC76
:102C10000AF01DC04CF14DEC0AF01EC04CF14DEC19
:102C20000AF01FC04CF14DEC0AF020C04CF14DEC05
:102C30000AF021C04CF14DEC0AF022C04CF14DECF1
:102C40000AF023C04CF14DEC0AF024C04CF14DECDD
:102C50000AF025C04CF14DEC0AF026C04CF14DECC9
:102C60000AF027C04CF14DEC0AF028C04CF14DECB5
:102C70000AF029C04CF14DEC0AF02AC04CF14DECA1
:102C80000AF02BC04CF14DEC0AF02CC04CF14DEC8D
:102C90000AF02DC04CF14DEC0AF02EC04CF14DEC79
:102CA0000AF01A0E0101496F000139EC0AF0939EF7
:102CB0008A7E010183D7939E8A9E38924307000142
:102CC00005EF18F01C6A036A1C5001014625E96EE5
:102CD00047510320EA6EEF5211E0036A1C5046256B
:102CE000E96E47510320EA6EEFCF48F148C149F140
:102CF000000139EC0AF01C2AE6D701010001000CA2
:102D0000016A026A006A036A01014A5102E14951FB
:102D100018E0100E4B6FD89047374837003603360F
:102D20004A51035C02E14951005C07E34951005EEE
:102D3000D8A003064A51035ED880013602364B2FD5
:102D4000EAD70001000C01014451260834E2FF0AD1
:102D500003E143510F082FE244C148F143C147F159
:102D6000270E4A6F100E496F0001CADF02C046F1FC
:102D700001C045F102C048F101C047F101014A6BB1
:102D80000A0E496F0001BCDF00C046F1010103C01B
:102D900047F118500024486F000E0320496F300E91
:102DA00048254A6F000E49214B6F4AC14CF1000182
:102DB0004DEC0AF001014451020834E2FF0A03E13C
:102DC0004351E7082FE244C148F143C147F1030EE4
:102DD0004A6FE80E496F000193DF02C046F101C05F
:102DE00045F102C048F101C047F101014A6B0A0EEA
:102DF000496F000185DF00C046F1010103C047F1C2
:102E000018500024486F000E0320496F300E4825EB
:102E10004A6F000E49214B6F4AC14CF100014DEC45
:102E20000AF00101445303E1435163082EE244C117
:102E300048F143C147F14A6B640E496F000160DFFE
:102E400002C046F101C045F102C048F101C047F19E
:102E500001014A6B0A0E496F000152DF00C046F1C2
:102E6000010103C047F118500024486F000E0320F1
:102E7000496F300E48254A6F000E49214B6F4AC1F9
:102E80004CF100014DEC0AF00101445303E14351C0
:102E900009082EE244C148F143C147F14A6B0A0ECA
:102EA000496F00012DDF02C046F101C045F102C0AB
:102EB00048F101C047F101014A6B0A0E496F000158
:102EC0001FDF00C046F1010103C047F11850002484
:102ED000486F000E0320496F300E48254A6F000EE0
:102EE00049214B6F4AC14CF100014DEC0AF0010140
:102EF00044C148F143C147F14A6B0A0E496F0001D2
:102F0000FFDE00C045F1010103C046F11850002466
:102F1000476F000E0320486F300E4725496F000EA3
:102F200048214A6F49C14CF100014DEC0AF07BEF9A
:102F300018F0F86AD09E088EEA6AE96AC150C00BA0
:102F40000F09C16E070EB46E0F0E186E330E196E98
:102F50000A0E1A6EDF0E1B6E1C6A530E1D6E610E7A
:102F60001E6E6E0E1F6E550E206E530E216E420E9B
:102F7000226E236A4C0E246E610E256E650E266E3F
:102F8000730E276E650E286E296A310E2A6E390E71
:102F90002B6E320E2C6E2E0E2D6E310E2E6E360EC8
:102FA0002F6E380E306E2E0E316E310E326E2E0EAA
:102FB000336E310E346E390E356E350E366E376A1D
:102FC000389038923894796B7A6B7B6B7C6B7D6B25
:102FD0007E6B250E0101446F800E436F0001EDEF03
:102FE00009F0C00EF2129D8AC150C00B0D09C16ECE
:102FF000C080C082C084C08EC280000E016EC250EC
:10300000C30B0110C26E55EF0AF038A49AD0389461
:10301000C282C2B2FED7C3CF7BF0C4CF7CF0020E17
:103020000101436FFA0E456F000124EC0AF0010123
:10303000432FF8D7EA6A800EE96EF2CF43F1F29E91
:10304000B40E016EF76A000E00014FEC08F00A00A2
:103050000900F5CFEEFF012EFBD7010143BFF28E31
:10306000476B800E466F00012DDE7E6B7D6B1D0E63
:103070007D25E96E000E7E21EA6EEF521DE01D0EE9
:103080007D25E96E000E7E21EA6EEFCF43F1400E02
:103090001824006E003A0032070E0016005001019D
:1030A0004303F3CF7FF000017FC049F139EC0AF010
:1030B0007D2BD8B47E2BDBD7EA6A800EE96EF2CF87
:1030C00043F1F29E110E016EF76A000EB6EC08F0A5
:1030D0000A000900F5CFEEFF012EFBD7010143BF27
:1030E000F28E476B800E466F0001ECDD7CC044F130
:1030F0007BC043F128D6EA6A800EE96EF2CF43F135
:10310000F29EC30E016EF76A000ECCEC08F00A00C6
:103110000900F5CFEEFF012EFBD7010143BFF28E70
:10312000476B800E466F0001CDDD020E0101436F3B
:10313000FA0E456F000124EC0AF00101432FF8D785
:06314000000163D703004B
:020000040030CA
:0E000000240E3E1E008381000FC00FE00F4053
:00000001FF
;PIC18F4550
;CRC=29F8  CREATED="19-abr-14 21:30"
