:020000040000FA
:040000000000000CF0
:041000003BEF08F0CA
:08100800F76A180FF66E100ED6
:10101000F7220900F550120006000D001400939EFF
:101020008A7E1E0E0B6E100E0C6EADEF08F0000CDB
:10103000939C8A7C300E126E100E136EADEF08F08A
:10104000000C93908A70420E196E100E1A6EADEF5E
:1010500008F0000C660ED36EF2CF1BF0F29EFD0E70
:10106000A96EA69CA69EA680A8501BBEF28E000A62
:10107000F3E14DEF08F0F86AD09EEA6AE96AB896A3
:10108000190EAF6E260EAC6E900EAB6EC150C00B3B
:101090000F09C16E070EB46EDDD7000E936E880E79
:1010A000D56E066A086A190E076E0A6A096A1E0E6C
:1010B0000B6E100E0C6E0D6A0F6A320E0E6E116AF8
:1010C000010E106E300E126E100E136E146A166A38
:1010D000640E156E186A020E176E420E196E100E0F
:1010E0001A6E056A880ED56EEC0ED76E780ED66E27
:1010F000F294880ED56ED80ED76EF00ED66EF2949E
:10110000D8900534006E80DF026E010E00247CDF73
:10111000036E03C0EAFF02C0E9FFEFCF02F0E92A45
:10112000EFCF00F0ECCF01F0EC2AEFCF03F002E1BB
:10113000EC2AED52EC50015C11E10050035C0EE131
:10114000ED52ED52EE6AEE6A02BE08D0EC52ECCFE0
:10115000FAFFED52EFCFE8FFF96E0001052A030E0A
:10116000055CCEE1056AD650D7CF03F0F2B4C3D701
:08117000FAD7FF0E056E030023
:020000040030CA
:0E000000240E3F1E008381000FC00FE00F4052
:00000001FF
;PIC18F2550
