:020000040000FA
:040000000000000CF0
:041000002AEF08F0DB
:08100800660ED36EF2CF09F071
:10101000F29EFD0EA96EA69CA69EA680A85009BEB3
:10102000F28E000AF3E141EF08F0EA6A090EE96E78
:10103000EF500FE0010E016E006A002EFED7012E68
:10104000FBD74A0E006E002EFED700000000EF2EE8
:10105000F1D7000CF86AD09EEA6AE96AB896190ED0
:10106000AF6E260EAC6E900EAB6EC150C00B0F096A
:10107000C16E070EB46EC80E056E066A076E086A6A
:10108000C3D7055202E106520FE00550D8B4060658
:10109000050693908A80010E096EC7DF93908A90AF
:1010A0000A0E096EC2DFEDD7066AC80E056E07523A
:1010B00002E108520FE00750D8B4080607069390E3
:1010C0008A80020E096EB1DF93908A900A0E096E33
:1010D000ACDFEDD7086AC80E076E939E8A7ED1D723
:0210E00003000B
:020000040030CA
:0E000000240E3F1E008381000FC00FE00F4052
:00000001FF
;PIC18F2550
