:020000040000FA
:040000000000000CF0
:041000002AEF08F0DB
:08100800660ED36EF2CF06F074
:10101000F29EFD0EA96EA69CA69EA680A85006BEB6
:10102000F28E000AF3E13CEF08F0EA6A070EE96E7F
:10103000EF500FE0010E016E006A002EFED7012E68
:10104000FBD74A0E006E002EFED700000000EF2EE8
:10105000F1D7000CF86AD09EEA6AE96AB896190ED0
:10106000AF6E260EAC6E900EAB6EC150C00B0F096A
:10107000C16E070EB46EC8D793908A80020E066EBA
:10108000FA0E076ED2DF062EFBD793908A90939CC0
:101090008A8C020E066EFA0E076EC7DF062EFBD78D
:1010A000939C8A9C939E8A8E020E066EFA0E076EA1
:0E10B000BCDF062EFBD7939E8A9EDED7030080
:020000040030CA
:0E000000240E3F1E008381000FC00FE00F4052
:00000001FF
;PIC18F2550
